{
	"data": {
		"bytecode": {
			"linkReferences": {},
			"object": "60806040523480156200001157600080fd5b506040516200336438038062003364833981810160405281019062000037919062000467565b84600281905550836004819055508260058190555081600690816200005d91906200074f565b50806000806101000a81548173ffffffffffffffffffffffffffffffffffffffff021916908373ffffffffffffffffffffffffffffffffffffffff1602179055508467ffffffffffffffff811115620000bb57620000ba6200028a565b5b604051908082528060200260200182016040528015620000ea5781602001602082028036833780820191505090505b50600390805190602001906200010292919062000174565b5060005b6002548110156200015e576200012360646200016a60201b60201c565b600382815481106200013a576200013962000836565b5b90600052602060002001819055508080620001559062000894565b91505062000106565b505050505050620008e1565b6000819050919050565b828054828255906000526020600020908101928215620001b3579160200282015b82811115620001b257825182559160200191906001019062000195565b5b509050620001c29190620001c6565b5090565b5b80821115620001e1576000816000905550600101620001c7565b5090565b6000604051905090565b600080fd5b600080fd5b6000819050919050565b6200020e81620001f9565b81146200021a57600080fd5b50565b6000815190506200022e8162000203565b92915050565b6000819050919050565b620002498162000234565b81146200025557600080fd5b50565b60008151905062000269816200023e565b92915050565b600080fd5b600080fd5b6000601f19601f8301169050919050565b7f4e487b7100000000000000000000000000000000000000000000000000000000600052604160045260246000fd5b620002c48262000279565b810181811067ffffffffffffffff82111715620002e657620002e56200028a565b5b80604052505050565b6000620002fb620001e5565b9050620003098282620002b9565b919050565b600067ffffffffffffffff8211156200032c576200032b6200028a565b5b620003378262000279565b9050602081019050919050565b60005b838110156200036457808201518184015260208101905062000347565b60008484015250505050565b60006200038762000381846200030e565b620002ef565b905082815260208101848484011115620003a657620003a562000274565b5b620003b384828562000344565b509392505050565b600082601f830112620003d357620003d26200026f565b5b8151620003e584826020860162000370565b91505092915050565b600073ffffffffffffffffffffffffffffffffffffffff82169050919050565b60006200041b82620003ee565b9050919050565b60006200042f826200040e565b9050919050565b620004418162000422565b81146200044d57600080fd5b50565b600081519050620004618162000436565b92915050565b600080600080600060a08688031215620004865762000485620001ef565b5b600062000496888289016200021d565b9550506020620004a98882890162000258565b9450506040620004bc8882890162000258565b935050606086015167ffffffffffffffff811115620004e057620004df620001f4565b5b620004ee88828901620003bb565b9250506080620005018882890162000450565b9150509295509295909350565b600081519050919050565b7f4e487b7100000000000000000000000000000000000000000000000000000000600052602260045260246000fd5b600060028204905060018216806200056157607f821691505b60208210810362000577576200057662000519565b5b50919050565b60008190508160005260206000209050919050565b60006020601f8301049050919050565b600082821b905092915050565b600060088302620005e17fffffffffffffffffffffffffffffffffffffffffffffffffffffffffffffffff82620005a2565b620005ed8683620005a2565b95508019841693508086168417925050509392505050565b6000819050919050565b6000620006306200062a6200062484620001f9565b62000605565b620001f9565b9050919050565b6000819050919050565b6200064c836200060f565b620006646200065b8262000637565b848454620005af565b825550505050565b600090565b6200067b6200066c565b6200068881848462000641565b505050565b5b81811015620006b057620006a460008262000671565b6001810190506200068e565b5050565b601f821115620006ff57620006c9816200057d565b620006d48462000592565b81016020851015620006e4578190505b620006fc620006f38562000592565b8301826200068d565b50505b505050565b600082821c905092915050565b6000620007246000198460080262000704565b1980831691505092915050565b60006200073f838362000711565b9150826002028217905092915050565b6200075a826200050e565b67ffffffffffffffff8111156200077657620007756200028a565b5b62000782825462000548565b6200078f828285620006b4565b600060209050601f831160018114620007c75760008415620007b2578287015190505b620007be858262000731565b8655506200082e565b601f198416620007d7866200057d565b60005b828110156200080157848901518255600182019150602085019450602081019050620007da565b868310156200082157848901516200081d601f89168262000711565b8355505b6001600288020188555050505b505050505050565b7f4e487b7100000000000000000000000000000000000000000000000000000000600052603260045260246000fd5b7f4e487b7100000000000000000000000000000000000000000000000000000000600052601160045260246000fd5b6000620008a182620001f9565b91507fffffffffffffffffffffffffffffffffffffffffffffffffffffffffffffffff8203620008d657620008d562000865565b5b600182019050919050565b612a7380620008f16000396000f3fe6080604052600436106100555760003560e01c806311f341211461005a57806341e9b97a146100645780636e2ef6af1461008f5780637dc0d1d0146100ab578063b5f5b77a146100d6578063ee7722a314610113575b600080fd5b610062610150565b005b34801561007057600080fd5b506100796103d9565b6040516100869190612060565b60405180910390f35b6100a960048036038101906100a491906120f8565b6104cb565b005b3480156100b757600080fd5b506100c061078c565b6040516100cd91906121b7565b60405180910390f35b3480156100e257600080fd5b506100fd60048036038101906100f8919061232b565b6107b2565b60405161010a91906123a5565b60405180910390f35b34801561011f57600080fd5b5061013a600480360381019061013591906123c0565b610844565b604051610147919061242b565b60405180910390f35b6000600760003373ffffffffffffffffffffffffffffffffffffffff1673ffffffffffffffffffffffffffffffffffffffff1681526020019081526020016000206000018054806020026020016040519081016040528092919081815260200182805480156101de57602002820191906000526020600020905b8154815260200190600101908083116101ca575b5050505050905060006101f16000610afe565b905060005b600254811015610239576102248284838151811061021757610216612446565b5b6020026020010151610b08565b91508080610231906124a4565b9150506101f6565b50600061024582610b36565b9050600061025283610b36565b13610292576040517f08c379a000000000000000000000000000000000000000000000000000000000815260040161028990612549565b60405180910390fd5b60025467ffffffffffffffff8111156102ae576102ad6121e8565b5b6040519080825280602002602001820160405280156102dc5781602001602082028036833780820191505090505b50600760003373ffffffffffffffffffffffffffffffffffffffff1673ffffffffffffffffffffffffffffffffffffffff1681526020019081526020016000206000019080519060200190610332929190611f2e565b5060008054906101000a900473ffffffffffffffffffffffffffffffffffffffff1673ffffffffffffffffffffffffffffffffffffffff166323b872dd3033846040518463ffffffff1660e01b815260040161039093929190612599565b6020604051808303816000875af11580156103af573d6000803e3d6000fd5b505050506040513d601f19601f820116820180604052508101906103d39190612608565b50505050565b6060600060025467ffffffffffffffff8111156103f9576103f86121e8565b5b6040519080825280602002602001820160405280156104275781602001602082028036833780820191505090505b50905060005b6002548110156104c35761049181600380548060200260200160405190810160405280929190818152602001828054801561048757602002820191906000526020600020905b815481526020019060010190808311610473575b5050505050610844565b8282815181106104a4576104a3612446565b5b60200260200101818152505080806104bb906124a4565b91505061042d565b508091505090565b600060025467ffffffffffffffff8111156104e9576104e86121e8565b5b6040519080825280602002602001820160405280156105175781602001602082028036833780820191505090505b5090508181848151811061052e5761052d612446565b5b6020026020010181815250506000600380548060200260200160405190810160405280929190818152602001828054801561058857602002820191906000526020600020905b815481526020019060010190808311610574575b50505050509050600060025467ffffffffffffffff8111156105ad576105ac6121e8565b5b6040519080825280602002602001820160405280156105db5781602001602082028036833780820191505090505b50905060005b60025481101561065b5761062983828151811061060157610600612446565b5b602002602001015185838151811061061c5761061b612446565b5b6020026020010151610b08565b82828151811061063c5761063b612446565b5b6020026020010181815250508080610653906124a4565b9150506105e1565b506000610667836107b2565b90506000610674836107b2565b9050600061068a6106858385610b40565b610b36565b905060008054906101000a900473ffffffffffffffffffffffffffffffffffffffff1673ffffffffffffffffffffffffffffffffffffffff166323b872dd3330846040518463ffffffff1660e01b81526004016106e993929190612599565b6020604051808303816000875af1158015610708573d6000803e3d6000fd5b505050506040513d601f19601f8201168201806040525081019061072c9190612608565b61076b576040517f08c379a000000000000000000000000000000000000000000000000000000000815260040161076290612681565b60405180910390fd5b8360039080519060200190610781929190611f2e565b505050505050505050565b600160009054906101000a900473ffffffffffffffffffffffffffffffffffffffff1681565b60006040516020016107c3906126f8565b6040516020818303038152906040528051906020012060066040516020016107eb9190612805565b60405160208183030381529060405280519060200120036108195761081260055483610b6e565b905061083f565b600061082f60045461082a85610bf0565b610c4e565b905061083b8184610b6e565b9150505b919050565b6000604051602001610855906126f8565b60405160208183030381529060405280519060200120600660405160200161087d9190612805565b60405160208183030381529060405280519060200120036108e6576108df6108da6108cc6108c78587815181106108b7576108b6612446565b5b6020026020010151600554610dde565b610f77565b6108d585610bf0565b610dde565b610b36565b9050610af8565b60006108fc6004546108f785610bf0565b610c4e565b90506000835167ffffffffffffffff81111561091b5761091a6121e8565b5b6040519080825280602002602001820160405280156109495781602001602082028036833780820191505090505b50905060005b6002548110156109b75761098561098086838151811061097257610971612446565b5b602002602001015185610dde565b610f77565b82828151811061099857610997612446565b5b60200260200101818152505080806109af906124a4565b91505061094f565b5060006109c382610bf0565b905060006109db6004546109d684611014565b610c4e565b905060005b600254811015610a6b57610a39878281518110610a00576109ff612446565b5b6020026020010151610a34610a2f8a8581518110610a2157610a20612446565b5b602002602001015189610dde565b610f77565b610c4e565b848281518110610a4c57610a4b612446565b5b6020026020010181815250508080610a63906124a4565b9150506109e0565b506000610abc610aae610a7d89610bf0565b610aa9610aa48b8d81518110610a9657610a95612446565b5b60200260200101518a610dde565b610f77565b610c4e565b610ab786610bf0565b610b40565b90506000610ad2610acc89610bf0565b85610c4e565b9050610aef610aea84610ae58585610dde565b610b08565b610b36565b96505050505050505b92915050565b6000819050919050565b6000610b2e610b168361105c565b610b1f8561105c565b610b29919061281c565b611066565b905092915050565b6000819050919050565b6000610b66610b4e8361105c565b610b578561105c565b610b619190612860565b611066565b905092915050565b600080610b7b6000610afe565b905060005b600254811015610bd457610bbf82610bba610bb5878581518110610ba757610ba6612446565b5b602002602001015189610dde565b610f77565b610b08565b91508080610bcc906124a4565b915050610b80565b50610be784610be283611014565b610c4e565b91505092915050565b600080610bfd6000610afe565b905060005b8351811015610c4457610c2f82858381518110610c2257610c21612446565b5b6020026020010151610b08565b91508080610c3c906124a4565b915050610c02565b5080915050919050565b600080610c5a8461105c565b90506000610c678461105c565b90507f8000000000000000000000000000000000000000000000000000000000000000821480610cb657507f800000000000000000000000000000000000000000000000000000000000000081145b15610ced576040517fa6070c2500000000000000000000000000000000000000000000000000000000815260040160405180910390fd5b60008060008412610cfe5783610d03565b836000035b915060008312610d135782610d18565b826000035b90506000610d268383611070565b90507f7fffffffffffffffffffffffffffffffffffffffffffffffffffffffffffffff811115610d8f5787876040517f120b5b43000000000000000000000000000000000000000000000000000000008152600401610d869291906128a3565b60405180910390fd5b60007fffffffffffffffffffffffffffffffffffffffffffffffffffffffffffffffff858718139050610dd081610dc95782600003610dcb565b825b611066565b965050505050505092915050565b600080610dea8461105c565b90506000610df78461105c565b90507f8000000000000000000000000000000000000000000000000000000000000000821480610e4657507f800000000000000000000000000000000000000000000000000000000000000081145b15610e7d576040517f9fe2b45000000000000000000000000000000000000000000000000000000000815260040160405180910390fd5b60008060008412610e8e5783610e93565b836000035b915060008312610ea35782610ea8565b826000035b90506000610ebf83670de0b6b3a76400008461115a565b90507f7fffffffffffffffffffffffffffffffffffffffffffffffffffffffffffffff811115610f285787876040517fd49c26b3000000000000000000000000000000000000000000000000000000008152600401610f1f9291906128a3565b60405180910390fd5b60007fffffffffffffffffffffffffffffffffffffffffffffffffffffffffffffffff858718139050610f6981610f625782600003610f64565b825b611066565b965050505050505092915050565b600080610f838361105c565b9050680736ea4425c11ac630811315610fd357826040517fca7ec0c5000000000000000000000000000000000000000000000000000000008152600401610fca91906123a5565b60405180910390fd5b60006714057b7ef767814f8202905061100b611006670de0b6b3a7640000838161100057610fff6128cc565b5b05611066565b611274565b92505050919050565b60006110556714057b7ef767814f670de0b6b3a764000061103c61103786611392565b61105c565b61104691906128fb565b6110509190612973565b611066565b9050919050565b6000819050919050565b6000819050919050565b60008060008019848609848602925082811083820303915050600081036110b357670de0b6b3a764000082816110a9576110a86128cc565b5b0492505050611154565b670de0b6b3a764000081106111015784846040517f5173648d0000000000000000000000000000000000000000000000000000000081526004016110f89291906129dd565b60405180910390fd5b6000670de0b6b3a764000085870990507faccb18165bd6fe31ae1cf318dc5b51eee0e1ba569b88cd74c1773b91fac106696001620400008060000304018483118403026204000083860304170293505050505b92915050565b60008060008019858709858702925082811083820303915050600081036111955783828161118b5761118a6128cc565b5b049250505061126d565b8381106111dd578585856040517f63a057780000000000000000000000000000000000000000000000000000000081526004016111d493929190612a06565b60405180910390fd5b60008486880990508281118203915080830392506000600186190186169050600081870496508185049450600182836000030401905080840285179450600060028860030218905080880260020381029050808802600203810290508088026002038102905080880260020381029050808802600203810290508088026002038102905080860296505050505050505b9392505050565b6000806112808361105c565b90506000811215611307577ffffffffffffffffffffffffffffffffffffffffffffffffcc22e87f6eb468eeb8112156112bd57600091505061138d565b6113006112dc6112d76112d284600003611066565b611274565b61105c565b6ec097ce7bc90715b34b9f1000000000816112fa576112f96128cc565b5b05611066565b915061138b565b680a688906bd8affffff81131561135557826040517f0360d02800000000000000000000000000000000000000000000000000000000815260040161134c91906123a5565b60405180910390fd5b6000670de0b6b3a7640000604083901b81611373576113726128cc565b5b05905061138761138282611525565b611066565b9250505b505b919050565b60008061139e8361105c565b9050600081136113e557826040517f059b101b0000000000000000000000000000000000000000000000000000000081526004016113dc91906123a5565b60405180910390fd5b6000670de0b6b3a764000082126113ff5760019050611445565b7fffffffffffffffffffffffffffffffffffffffffffffffffffffffffffffffff9050816ec097ce7bc90715b34b9f100000000081611441576114406128cc565b5b0591505b6000611468670de0b6b3a76400008481611462576114616128cc565b5b05611e85565b90506000670de0b6b3a76400008202905060008285901d9050670de0b6b3a764000081036114a75761149b848302611066565b95505050505050611520565b6000671bc16d674ec80000905060006706f05b59d3b2000090505b600081131561150857670de0b6b3a7640000838402816114e5576114e46128cc565b5b0592508183126114fc578084019350600183901d92505b600181901d90506114c2565b50848302925061151783611066565b96505050505050505b919050565b6000778000000000000000000000000000000000000000000000009050600067ff00000000000000831611156116865760006780000000000000008316111561157b57604068016a09e667f3bcc9098202901c90505b6000674000000000000000831611156115a15760406801306fe0a31b7152df8202901c90505b6000672000000000000000831611156115c75760406801172b83c7d517adce8202901c90505b6000671000000000000000831611156115ed57604068010b5586cf9890f62a8202901c90505b6000670800000000000000831611156116135760406801059b0d31585743ae8202901c90505b600067040000000000000083161115611639576040680102c9a3e778060ee78202901c90505b60006702000000000000008316111561165f57604068010163da9fb33356d88202901c90505b600067010000000000000083161115611685576040680100b1afa5abcbed618202901c90505b5b600066ff000000000000831611156117c15760006680000000000000831611156116bd57604068010058c86da1c09ea28202901c90505b60006640000000000000831611156116e25760406801002c605e2e8cec508202901c90505b6000662000000000000083161115611707576040680100162f3904051fa18202901c90505b600066100000000000008316111561172c5760406801000b175effdc76ba8202901c90505b6000660800000000000083161115611751576040680100058ba01fb9f96d8202901c90505b600066040000000000008316111561177657604068010002c5cc37da94928202901c90505b600066020000000000008316111561179b5760406801000162e525ee05478202901c90505b60006601000000000000831611156117c057604068010000b17255775c048202901c90505b5b600065ff0000000000831611156118f357600065800000000000831611156117f65760406801000058b91b5bc9ae8202901c90505b6000654000000000008316111561181a576040680100002c5c89d5ec6d8202901c90505b6000652000000000008316111561183e57604068010000162e43f4f8318202901c90505b60006510000000000083161115611862576040680100000b1721bcfc9a8202901c90505b6000650800000000008316111561188657604068010000058b90cf1e6e8202901c90505b600065040000000000831611156118aa5760406801000002c5c863b73f8202901c90505b600065020000000000831611156118ce576040680100000162e430e5a28202901c90505b600065010000000000831611156118f25760406801000000b1721835518202901c90505b5b600064ff0000000083161115611a1c57600064800000000083161115611926576040680100000058b90c0b498202901c90505b60006440000000008316111561194957604068010000002c5c8601cc8202901c90505b60006420000000008316111561196c5760406801000000162e42fff08202901c90505b60006410000000008316111561198f57604068010000000b17217fbb8202901c90505b6000640800000000831611156119b25760406801000000058b90bfce8202901c90505b6000640400000000831611156119d5576040680100000002c5c85fe38202901c90505b6000640200000000831611156119f857604068010000000162e42ff18202901c90505b600064010000000083161115611a1b576040680100000000b17217f88202901c90505b5b600063ff00000083161115611b3c576000638000000083161115611a4d57604068010000000058b90bfc8202901c90505b6000634000000083161115611a6f5760406801000000002c5c85fe8202901c90505b6000632000000083161115611a91576040680100000000162e42ff8202901c90505b6000631000000083161115611ab35760406801000000000b17217f8202901c90505b6000630800000083161115611ad5576040680100000000058b90c08202901c90505b6000630400000083161115611af757604068010000000002c5c8608202901c90505b6000630200000083161115611b195760406801000000000162e4308202901c90505b6000630100000083161115611b3b57604068010000000000b172188202901c90505b5b600062ff000083161115611c535760006280000083161115611b6b5760406801000000000058b90c8202901c90505b60006240000083161115611b8c576040680100000000002c5c868202901c90505b60006220000083161115611bad57604068010000000000162e438202901c90505b60006210000083161115611bce576040680100000000000b17218202901c90505b60006208000083161115611bef57604068010000000000058b918202901c90505b60006204000083161115611c105760406801000000000002c5c88202901c90505b60006202000083161115611c31576040680100000000000162e48202901c90505b60006201000083161115611c525760406801000000000000b1728202901c90505b5b600061ff0083161115611d6157600061800083161115611c80576040680100000000000058b98202901c90505b600061400083161115611ca057604068010000000000002c5d8202901c90505b600061200083161115611cc05760406801000000000000162e8202901c90505b600061100083161115611ce057604068010000000000000b178202901c90505b600061080083161115611d005760406801000000000000058c8202901c90505b600061040083161115611d20576040680100000000000002c68202901c90505b600061020083161115611d40576040680100000000000001638202901c90505b600061010083161115611d60576040680100000000000000b18202901c90505b5b600060ff83161115611e66576000608083161115611d8c576040680100000000000000598202901c90505b6000604083161115611dab5760406801000000000000002c8202901c90505b6000602083161115611dca576040680100000000000000168202901c90505b6000601083161115611de95760406801000000000000000b8202901c90505b6000600883161115611e08576040680100000000000000068202901c90505b6000600483161115611e27576040680100000000000000038202901c90505b6000600283161115611e46576040680100000000000000018202901c90505b6000600183161115611e65576040680100000000000000018202901c90505b5b670de0b6b3a764000081029050604082901c60bf0381901c9050919050565b60006fffffffffffffffffffffffffffffffff821160071b82811c925080821791505067ffffffffffffffff821160061b82811c925080821791505063ffffffff821160051b82811c925080821791505061ffff821160041b82811c925080821791505060ff821160031b82811c9250808217915050600f821160021b82811c92508082179150506003821160011b82811c925080821791505060018211808217915050919050565b828054828255906000526020600020908101928215611f6a579160200282015b82811115611f69578251825591602001919060010190611f4e565b5b509050611f779190611f7b565b5090565b5b80821115611f94576000816000905550600101611f7c565b5090565b600081519050919050565b600082825260208201905092915050565b6000819050602082019050919050565b6000819050919050565b611fd781611fc4565b82525050565b6000611fe98383611fce565b60208301905092915050565b6000602082019050919050565b600061200d82611f98565b6120178185611fa3565b935061202283611fb4565b8060005b8381101561205357815161203a8882611fdd565b975061204583611ff5565b925050600181019050612026565b5085935050505092915050565b6000602082019050818103600083015261207a8184612002565b905092915050565b6000604051905090565b600080fd5b600080fd5b6000819050919050565b6120a981612096565b81146120b457600080fd5b50565b6000813590506120c6816120a0565b92915050565b6120d581611fc4565b81146120e057600080fd5b50565b6000813590506120f2816120cc565b92915050565b6000806040838503121561210f5761210e61208c565b5b600061211d858286016120b7565b925050602061212e858286016120e3565b9150509250929050565b600073ffffffffffffffffffffffffffffffffffffffff82169050919050565b6000819050919050565b600061217d61217861217384612138565b612158565b612138565b9050919050565b600061218f82612162565b9050919050565b60006121a182612184565b9050919050565b6121b181612196565b82525050565b60006020820190506121cc60008301846121a8565b92915050565b600080fd5b6000601f19601f8301169050919050565b7f4e487b7100000000000000000000000000000000000000000000000000000000600052604160045260246000fd5b612220826121d7565b810181811067ffffffffffffffff8211171561223f5761223e6121e8565b5b80604052505050565b6000612252612082565b905061225e8282612217565b919050565b600067ffffffffffffffff82111561227e5761227d6121e8565b5b602082029050602081019050919050565b600080fd5b60006122a76122a284612263565b612248565b905080838252602082019050602084028301858111156122ca576122c961228f565b5b835b818110156122f357806122df88826120e3565b8452602084019350506020810190506122cc565b5050509392505050565b600082601f830112612312576123116121d2565b5b8135612322848260208601612294565b91505092915050565b6000602082840312156123415761234061208c565b5b600082013567ffffffffffffffff81111561235f5761235e612091565b5b61236b848285016122fd565b91505092915050565b600061238f61238a61238584611fc4565b612158565b611fc4565b9050919050565b61239f81612374565b82525050565b60006020820190506123ba6000830184612396565b92915050565b600080604083850312156123d7576123d661208c565b5b60006123e5858286016120b7565b925050602083013567ffffffffffffffff81111561240657612405612091565b5b612412858286016122fd565b9150509250929050565b61242581611fc4565b82525050565b6000602082019050612440600083018461241c565b92915050565b7f4e487b7100000000000000000000000000000000000000000000000000000000600052603260045260246000fd5b7f4e487b7100000000000000000000000000000000000000000000000000000000600052601160045260246000fd5b60006124af82612096565b91507fffffffffffffffffffffffffffffffffffffffffffffffffffffffffffffffff82036124e1576124e0612475565b5b600182019050919050565b600082825260208201905092915050565b7f4e6f2077696e6e696e677320746f2072656465656d0000000000000000000000600082015250565b60006125336015836124ec565b915061253e826124fd565b602082019050919050565b6000602082019050818103600083015261256281612526565b9050919050565b600061257482612138565b9050919050565b61258481612569565b82525050565b61259381612096565b82525050565b60006060820190506125ae600083018661257b565b6125bb602083018561257b565b6125c8604083018461258a565b949350505050565b60008115159050919050565b6125e5816125d0565b81146125f057600080fd5b50565b600081519050612602816125dc565b92915050565b60006020828403121561261e5761261d61208c565b5b600061262c848285016125f3565b91505092915050565b7f5472616e73666572206661696c65640000000000000000000000000000000000600082015250565b600061266b600f836124ec565b915061267682612635565b602082019050919050565b6000602082019050818103600083015261269a8161265e565b9050919050565b600081905092915050565b7f4c4d535200000000000000000000000000000000000000000000000000000000600082015250565b60006126e26004836126a1565b91506126ed826126ac565b600482019050919050565b6000612703826126d5565b9150819050919050565b7f4e487b7100000000000000000000000000000000000000000000000000000000600052602260045260246000fd5b6000600282049050600182168061275457607f821691505b6020821081036127675761276661270d565b5b50919050565b60008190508160005260206000209050919050565b6000815461278f8161273c565b61279981866126a1565b945060018216600081146127b457600181146127c9576127fc565b60ff19831686528115158202860193506127fc565b6127d28561276d565b60005b838110156127f4578154818901526001820191506020810190506127d5565b838801955050505b50505092915050565b60006128118284612782565b915081905092915050565b600061282782611fc4565b915061283283611fc4565b92508282019050828112156000831216838212600084121516171561285a57612859612475565b5b92915050565b600061286b82611fc4565b915061287683611fc4565b925082820390508181126000841216828213600085121516171561289d5761289c612475565b5b92915050565b60006040820190506128b86000830185612396565b6128c56020830184612396565b9392505050565b7f4e487b7100000000000000000000000000000000000000000000000000000000600052601260045260246000fd5b600061290682611fc4565b915061291183611fc4565b925082820261291f81611fc4565b91507f8000000000000000000000000000000000000000000000000000000000000000841460008412161561295757612956612475565b5b828205841483151761296c5761296b612475565b5b5092915050565b600061297e82611fc4565b915061298983611fc4565b925082612999576129986128cc565b5b600160000383147f8000000000000000000000000000000000000000000000000000000000000000831416156129d2576129d1612475565b5b828205905092915050565b60006040820190506129f2600083018561258a565b6129ff602083018461258a565b9392505050565b6000606082019050612a1b600083018661258a565b612a28602083018561258a565b612a35604083018461258a565b94935050505056fea2646970667358221220523b4002743313462d021a5dad1f895ed924a42e8144b60ee4c0779eed2dfb0464736f6c63430008130033",
			"opcodes": "PUSH1 0x80 PUSH1 0x40 MSTORE CALLVALUE DUP1 ISZERO PUSH3 0x11 JUMPI PUSH1 0x0 DUP1 REVERT JUMPDEST POP PUSH1 0x40 MLOAD PUSH3 0x3364 CODESIZE SUB DUP1 PUSH3 0x3364 DUP4 CODECOPY DUP2 DUP2 ADD PUSH1 0x40 MSTORE DUP2 ADD SWAP1 PUSH3 0x37 SWAP2 SWAP1 PUSH3 0x467 JUMP JUMPDEST DUP5 PUSH1 0x2 DUP2 SWAP1 SSTORE POP DUP4 PUSH1 0x4 DUP2 SWAP1 SSTORE POP DUP3 PUSH1 0x5 DUP2 SWAP1 SSTORE POP DUP2 PUSH1 0x6 SWAP1 DUP2 PUSH3 0x5D SWAP2 SWAP1 PUSH3 0x74F JUMP JUMPDEST POP DUP1 PUSH1 0x0 DUP1 PUSH2 0x100 EXP DUP2 SLOAD DUP2 PUSH20 0xFFFFFFFFFFFFFFFFFFFFFFFFFFFFFFFFFFFFFFFF MUL NOT AND SWAP1 DUP4 PUSH20 0xFFFFFFFFFFFFFFFFFFFFFFFFFFFFFFFFFFFFFFFF AND MUL OR SWAP1 SSTORE POP DUP5 PUSH8 0xFFFFFFFFFFFFFFFF DUP2 GT ISZERO PUSH3 0xBB JUMPI PUSH3 0xBA PUSH3 0x28A JUMP JUMPDEST JUMPDEST PUSH1 0x40 MLOAD SWAP1 DUP1 DUP3 MSTORE DUP1 PUSH1 0x20 MUL PUSH1 0x20 ADD DUP3 ADD PUSH1 0x40 MSTORE DUP1 ISZERO PUSH3 0xEA JUMPI DUP2 PUSH1 0x20 ADD PUSH1 0x20 DUP3 MUL DUP1 CALLDATASIZE DUP4 CALLDATACOPY DUP1 DUP3 ADD SWAP2 POP POP SWAP1 POP JUMPDEST POP PUSH1 0x3 SWAP1 DUP1 MLOAD SWAP1 PUSH1 0x20 ADD SWAP1 PUSH3 0x102 SWAP3 SWAP2 SWAP1 PUSH3 0x174 JUMP JUMPDEST POP PUSH1 0x0 JUMPDEST PUSH1 0x2 SLOAD DUP2 LT ISZERO PUSH3 0x15E JUMPI PUSH3 0x123 PUSH1 0x64 PUSH3 0x16A PUSH1 0x20 SHL PUSH1 0x20 SHR JUMP JUMPDEST PUSH1 0x3 DUP3 DUP2 SLOAD DUP2 LT PUSH3 0x13A JUMPI PUSH3 0x139 PUSH3 0x836 JUMP JUMPDEST JUMPDEST SWAP1 PUSH1 0x0 MSTORE PUSH1 0x20 PUSH1 0x0 KECCAK256 ADD DUP2 SWAP1 SSTORE POP DUP1 DUP1 PUSH3 0x155 SWAP1 PUSH3 0x894 JUMP JUMPDEST SWAP2 POP POP PUSH3 0x106 JUMP JUMPDEST POP POP POP POP POP POP PUSH3 0x8E1 JUMP JUMPDEST PUSH1 0x0 DUP2 SWAP1 POP SWAP2 SWAP1 POP JUMP JUMPDEST DUP3 DUP1 SLOAD DUP3 DUP3 SSTORE SWAP1 PUSH1 0x0 MSTORE PUSH1 0x20 PUSH1 0x0 KECCAK256 SWAP1 DUP2 ADD SWAP3 DUP3 ISZERO PUSH3 0x1B3 JUMPI SWAP2 PUSH1 0x20 MUL DUP3 ADD JUMPDEST DUP3 DUP2 GT ISZERO PUSH3 0x1B2 JUMPI DUP3 MLOAD DUP3 SSTORE SWAP2 PUSH1 0x20 ADD SWAP2 SWAP1 PUSH1 0x1 ADD SWAP1 PUSH3 0x195 JUMP JUMPDEST JUMPDEST POP SWAP1 POP PUSH3 0x1C2 SWAP2 SWAP1 PUSH3 0x1C6 JUMP JUMPDEST POP SWAP1 JUMP JUMPDEST JUMPDEST DUP1 DUP3 GT ISZERO PUSH3 0x1E1 JUMPI PUSH1 0x0 DUP2 PUSH1 0x0 SWAP1 SSTORE POP PUSH1 0x1 ADD PUSH3 0x1C7 JUMP JUMPDEST POP SWAP1 JUMP JUMPDEST PUSH1 0x0 PUSH1 0x40 MLOAD SWAP1 POP SWAP1 JUMP JUMPDEST PUSH1 0x0 DUP1 REVERT JUMPDEST PUSH1 0x0 DUP1 REVERT JUMPDEST PUSH1 0x0 DUP2 SWAP1 POP SWAP2 SWAP1 POP JUMP JUMPDEST PUSH3 0x20E DUP2 PUSH3 0x1F9 JUMP JUMPDEST DUP2 EQ PUSH3 0x21A JUMPI PUSH1 0x0 DUP1 REVERT JUMPDEST POP JUMP JUMPDEST PUSH1 0x0 DUP2 MLOAD SWAP1 POP PUSH3 0x22E DUP2 PUSH3 0x203 JUMP JUMPDEST SWAP3 SWAP2 POP POP JUMP JUMPDEST PUSH1 0x0 DUP2 SWAP1 POP SWAP2 SWAP1 POP JUMP JUMPDEST PUSH3 0x249 DUP2 PUSH3 0x234 JUMP JUMPDEST DUP2 EQ PUSH3 0x255 JUMPI PUSH1 0x0 DUP1 REVERT JUMPDEST POP JUMP JUMPDEST PUSH1 0x0 DUP2 MLOAD SWAP1 POP PUSH3 0x269 DUP2 PUSH3 0x23E JUMP JUMPDEST SWAP3 SWAP2 POP POP JUMP JUMPDEST PUSH1 0x0 DUP1 REVERT JUMPDEST PUSH1 0x0 DUP1 REVERT JUMPDEST PUSH1 0x0 PUSH1 0x1F NOT PUSH1 0x1F DUP4 ADD AND SWAP1 POP SWAP2 SWAP1 POP JUMP JUMPDEST PUSH32 0x4E487B7100000000000000000000000000000000000000000000000000000000 PUSH1 0x0 MSTORE PUSH1 0x41 PUSH1 0x4 MSTORE PUSH1 0x24 PUSH1 0x0 REVERT JUMPDEST PUSH3 0x2C4 DUP3 PUSH3 0x279 JUMP JUMPDEST DUP2 ADD DUP2 DUP2 LT PUSH8 0xFFFFFFFFFFFFFFFF DUP3 GT OR ISZERO PUSH3 0x2E6 JUMPI PUSH3 0x2E5 PUSH3 0x28A JUMP JUMPDEST JUMPDEST DUP1 PUSH1 0x40 MSTORE POP POP POP JUMP JUMPDEST PUSH1 0x0 PUSH3 0x2FB PUSH3 0x1E5 JUMP JUMPDEST SWAP1 POP PUSH3 0x309 DUP3 DUP3 PUSH3 0x2B9 JUMP JUMPDEST SWAP2 SWAP1 POP JUMP JUMPDEST PUSH1 0x0 PUSH8 0xFFFFFFFFFFFFFFFF DUP3 GT ISZERO PUSH3 0x32C JUMPI PUSH3 0x32B PUSH3 0x28A JUMP JUMPDEST JUMPDEST PUSH3 0x337 DUP3 PUSH3 0x279 JUMP JUMPDEST SWAP1 POP PUSH1 0x20 DUP2 ADD SWAP1 POP SWAP2 SWAP1 POP JUMP JUMPDEST PUSH1 0x0 JUMPDEST DUP4 DUP2 LT ISZERO PUSH3 0x364 JUMPI DUP1 DUP3 ADD MLOAD DUP2 DUP5 ADD MSTORE PUSH1 0x20 DUP2 ADD SWAP1 POP PUSH3 0x347 JUMP JUMPDEST PUSH1 0x0 DUP5 DUP5 ADD MSTORE POP POP POP POP JUMP JUMPDEST PUSH1 0x0 PUSH3 0x387 PUSH3 0x381 DUP5 PUSH3 0x30E JUMP JUMPDEST PUSH3 0x2EF JUMP JUMPDEST SWAP1 POP DUP3 DUP2 MSTORE PUSH1 0x20 DUP2 ADD DUP5 DUP5 DUP5 ADD GT ISZERO PUSH3 0x3A6 JUMPI PUSH3 0x3A5 PUSH3 0x274 JUMP JUMPDEST JUMPDEST PUSH3 0x3B3 DUP5 DUP3 DUP6 PUSH3 0x344 JUMP JUMPDEST POP SWAP4 SWAP3 POP POP POP JUMP JUMPDEST PUSH1 0x0 DUP3 PUSH1 0x1F DUP4 ADD SLT PUSH3 0x3D3 JUMPI PUSH3 0x3D2 PUSH3 0x26F JUMP JUMPDEST JUMPDEST DUP2 MLOAD PUSH3 0x3E5 DUP5 DUP3 PUSH1 0x20 DUP7 ADD PUSH3 0x370 JUMP JUMPDEST SWAP2 POP POP SWAP3 SWAP2 POP POP JUMP JUMPDEST PUSH1 0x0 PUSH20 0xFFFFFFFFFFFFFFFFFFFFFFFFFFFFFFFFFFFFFFFF DUP3 AND SWAP1 POP SWAP2 SWAP1 POP JUMP JUMPDEST PUSH1 0x0 PUSH3 0x41B DUP3 PUSH3 0x3EE JUMP JUMPDEST SWAP1 POP SWAP2 SWAP1 POP JUMP JUMPDEST PUSH1 0x0 PUSH3 0x42F DUP3 PUSH3 0x40E JUMP JUMPDEST SWAP1 POP SWAP2 SWAP1 POP JUMP JUMPDEST PUSH3 0x441 DUP2 PUSH3 0x422 JUMP JUMPDEST DUP2 EQ PUSH3 0x44D JUMPI PUSH1 0x0 DUP1 REVERT JUMPDEST POP JUMP JUMPDEST PUSH1 0x0 DUP2 MLOAD SWAP1 POP PUSH3 0x461 DUP2 PUSH3 0x436 JUMP JUMPDEST SWAP3 SWAP2 POP POP JUMP JUMPDEST PUSH1 0x0 DUP1 PUSH1 0x0 DUP1 PUSH1 0x0 PUSH1 0xA0 DUP7 DUP9 SUB SLT ISZERO PUSH3 0x486 JUMPI PUSH3 0x485 PUSH3 0x1EF JUMP JUMPDEST JUMPDEST PUSH1 0x0 PUSH3 0x496 DUP9 DUP3 DUP10 ADD PUSH3 0x21D JUMP JUMPDEST SWAP6 POP POP PUSH1 0x20 PUSH3 0x4A9 DUP9 DUP3 DUP10 ADD PUSH3 0x258 JUMP JUMPDEST SWAP5 POP POP PUSH1 0x40 PUSH3 0x4BC DUP9 DUP3 DUP10 ADD PUSH3 0x258 JUMP JUMPDEST SWAP4 POP POP PUSH1 0x60 DUP7 ADD MLOAD PUSH8 0xFFFFFFFFFFFFFFFF DUP2 GT ISZERO PUSH3 0x4E0 JUMPI PUSH3 0x4DF PUSH3 0x1F4 JUMP JUMPDEST JUMPDEST PUSH3 0x4EE DUP9 DUP3 DUP10 ADD PUSH3 0x3BB JUMP JUMPDEST SWAP3 POP POP PUSH1 0x80 PUSH3 0x501 DUP9 DUP3 DUP10 ADD PUSH3 0x450 JUMP JUMPDEST SWAP2 POP POP SWAP3 SWAP6 POP SWAP3 SWAP6 SWAP1 SWAP4 POP JUMP JUMPDEST PUSH1 0x0 DUP2 MLOAD SWAP1 POP SWAP2 SWAP1 POP JUMP JUMPDEST PUSH32 0x4E487B7100000000000000000000000000000000000000000000000000000000 PUSH1 0x0 MSTORE PUSH1 0x22 PUSH1 0x4 MSTORE PUSH1 0x24 PUSH1 0x0 REVERT JUMPDEST PUSH1 0x0 PUSH1 0x2 DUP3 DIV SWAP1 POP PUSH1 0x1 DUP3 AND DUP1 PUSH3 0x561 JUMPI PUSH1 0x7F DUP3 AND SWAP2 POP JUMPDEST PUSH1 0x20 DUP3 LT DUP2 SUB PUSH3 0x577 JUMPI PUSH3 0x576 PUSH3 0x519 JUMP JUMPDEST JUMPDEST POP SWAP2 SWAP1 POP JUMP JUMPDEST PUSH1 0x0 DUP2 SWAP1 POP DUP2 PUSH1 0x0 MSTORE PUSH1 0x20 PUSH1 0x0 KECCAK256 SWAP1 POP SWAP2 SWAP1 POP JUMP JUMPDEST PUSH1 0x0 PUSH1 0x20 PUSH1 0x1F DUP4 ADD DIV SWAP1 POP SWAP2 SWAP1 POP JUMP JUMPDEST PUSH1 0x0 DUP3 DUP3 SHL SWAP1 POP SWAP3 SWAP2 POP POP JUMP JUMPDEST PUSH1 0x0 PUSH1 0x8 DUP4 MUL PUSH3 0x5E1 PUSH32 0xFFFFFFFFFFFFFFFFFFFFFFFFFFFFFFFFFFFFFFFFFFFFFFFFFFFFFFFFFFFFFFFF DUP3 PUSH3 0x5A2 JUMP JUMPDEST PUSH3 0x5ED DUP7 DUP4 PUSH3 0x5A2 JUMP JUMPDEST SWAP6 POP DUP1 NOT DUP5 AND SWAP4 POP DUP1 DUP7 AND DUP5 OR SWAP3 POP POP POP SWAP4 SWAP3 POP POP POP JUMP JUMPDEST PUSH1 0x0 DUP2 SWAP1 POP SWAP2 SWAP1 POP JUMP JUMPDEST PUSH1 0x0 PUSH3 0x630 PUSH3 0x62A PUSH3 0x624 DUP5 PUSH3 0x1F9 JUMP JUMPDEST PUSH3 0x605 JUMP JUMPDEST PUSH3 0x1F9 JUMP JUMPDEST SWAP1 POP SWAP2 SWAP1 POP JUMP JUMPDEST PUSH1 0x0 DUP2 SWAP1 POP SWAP2 SWAP1 POP JUMP JUMPDEST PUSH3 0x64C DUP4 PUSH3 0x60F JUMP JUMPDEST PUSH3 0x664 PUSH3 0x65B DUP3 PUSH3 0x637 JUMP JUMPDEST DUP5 DUP5 SLOAD PUSH3 0x5AF JUMP JUMPDEST DUP3 SSTORE POP POP POP POP JUMP JUMPDEST PUSH1 0x0 SWAP1 JUMP JUMPDEST PUSH3 0x67B PUSH3 0x66C JUMP JUMPDEST PUSH3 0x688 DUP2 DUP5 DUP5 PUSH3 0x641 JUMP JUMPDEST POP POP POP JUMP JUMPDEST JUMPDEST DUP2 DUP2 LT ISZERO PUSH3 0x6B0 JUMPI PUSH3 0x6A4 PUSH1 0x0 DUP3 PUSH3 0x671 JUMP JUMPDEST PUSH1 0x1 DUP2 ADD SWAP1 POP PUSH3 0x68E JUMP JUMPDEST POP POP JUMP JUMPDEST PUSH1 0x1F DUP3 GT ISZERO PUSH3 0x6FF JUMPI PUSH3 0x6C9 DUP2 PUSH3 0x57D JUMP JUMPDEST PUSH3 0x6D4 DUP5 PUSH3 0x592 JUMP JUMPDEST DUP2 ADD PUSH1 0x20 DUP6 LT ISZERO PUSH3 0x6E4 JUMPI DUP2 SWAP1 POP JUMPDEST PUSH3 0x6FC PUSH3 0x6F3 DUP6 PUSH3 0x592 JUMP JUMPDEST DUP4 ADD DUP3 PUSH3 0x68D JUMP JUMPDEST POP POP JUMPDEST POP POP POP JUMP JUMPDEST PUSH1 0x0 DUP3 DUP3 SHR SWAP1 POP SWAP3 SWAP2 POP POP JUMP JUMPDEST PUSH1 0x0 PUSH3 0x724 PUSH1 0x0 NOT DUP5 PUSH1 0x8 MUL PUSH3 0x704 JUMP JUMPDEST NOT DUP1 DUP4 AND SWAP2 POP POP SWAP3 SWAP2 POP POP JUMP JUMPDEST PUSH1 0x0 PUSH3 0x73F DUP4 DUP4 PUSH3 0x711 JUMP JUMPDEST SWAP2 POP DUP3 PUSH1 0x2 MUL DUP3 OR SWAP1 POP SWAP3 SWAP2 POP POP JUMP JUMPDEST PUSH3 0x75A DUP3 PUSH3 0x50E JUMP JUMPDEST PUSH8 0xFFFFFFFFFFFFFFFF DUP2 GT ISZERO PUSH3 0x776 JUMPI PUSH3 0x775 PUSH3 0x28A JUMP JUMPDEST JUMPDEST PUSH3 0x782 DUP3 SLOAD PUSH3 0x548 JUMP JUMPDEST PUSH3 0x78F DUP3 DUP3 DUP6 PUSH3 0x6B4 JUMP JUMPDEST PUSH1 0x0 PUSH1 0x20 SWAP1 POP PUSH1 0x1F DUP4 GT PUSH1 0x1 DUP2 EQ PUSH3 0x7C7 JUMPI PUSH1 0x0 DUP5 ISZERO PUSH3 0x7B2 JUMPI DUP3 DUP8 ADD MLOAD SWAP1 POP JUMPDEST PUSH3 0x7BE DUP6 DUP3 PUSH3 0x731 JUMP JUMPDEST DUP7 SSTORE POP PUSH3 0x82E JUMP JUMPDEST PUSH1 0x1F NOT DUP5 AND PUSH3 0x7D7 DUP7 PUSH3 0x57D JUMP JUMPDEST PUSH1 0x0 JUMPDEST DUP3 DUP2 LT ISZERO PUSH3 0x801 JUMPI DUP5 DUP10 ADD MLOAD DUP3 SSTORE PUSH1 0x1 DUP3 ADD SWAP2 POP PUSH1 0x20 DUP6 ADD SWAP5 POP PUSH1 0x20 DUP2 ADD SWAP1 POP PUSH3 0x7DA JUMP JUMPDEST DUP7 DUP4 LT ISZERO PUSH3 0x821 JUMPI DUP5 DUP10 ADD MLOAD PUSH3 0x81D PUSH1 0x1F DUP10 AND DUP3 PUSH3 0x711 JUMP JUMPDEST DUP4 SSTORE POP JUMPDEST PUSH1 0x1 PUSH1 0x2 DUP9 MUL ADD DUP9 SSTORE POP POP POP JUMPDEST POP POP POP POP POP POP JUMP JUMPDEST PUSH32 0x4E487B7100000000000000000000000000000000000000000000000000000000 PUSH1 0x0 MSTORE PUSH1 0x32 PUSH1 0x4 MSTORE PUSH1 0x24 PUSH1 0x0 REVERT JUMPDEST PUSH32 0x4E487B7100000000000000000000000000000000000000000000000000000000 PUSH1 0x0 MSTORE PUSH1 0x11 PUSH1 0x4 MSTORE PUSH1 0x24 PUSH1 0x0 REVERT JUMPDEST PUSH1 0x0 PUSH3 0x8A1 DUP3 PUSH3 0x1F9 JUMP JUMPDEST SWAP2 POP PUSH32 0xFFFFFFFFFFFFFFFFFFFFFFFFFFFFFFFFFFFFFFFFFFFFFFFFFFFFFFFFFFFFFFFF DUP3 SUB PUSH3 0x8D6 JUMPI PUSH3 0x8D5 PUSH3 0x865 JUMP JUMPDEST JUMPDEST PUSH1 0x1 DUP3 ADD SWAP1 POP SWAP2 SWAP1 POP JUMP JUMPDEST PUSH2 0x2A73 DUP1 PUSH3 0x8F1 PUSH1 0x0 CODECOPY PUSH1 0x0 RETURN INVALID PUSH1 0x80 PUSH1 0x40 MSTORE PUSH1 0x4 CALLDATASIZE LT PUSH2 0x55 JUMPI PUSH1 0x0 CALLDATALOAD PUSH1 0xE0 SHR DUP1 PUSH4 0x11F34121 EQ PUSH2 0x5A JUMPI DUP1 PUSH4 0x41E9B97A EQ PUSH2 0x64 JUMPI DUP1 PUSH4 0x6E2EF6AF EQ PUSH2 0x8F JUMPI DUP1 PUSH4 0x7DC0D1D0 EQ PUSH2 0xAB JUMPI DUP1 PUSH4 0xB5F5B77A EQ PUSH2 0xD6 JUMPI DUP1 PUSH4 0xEE7722A3 EQ PUSH2 0x113 JUMPI JUMPDEST PUSH1 0x0 DUP1 REVERT JUMPDEST PUSH2 0x62 PUSH2 0x150 JUMP JUMPDEST STOP JUMPDEST CALLVALUE DUP1 ISZERO PUSH2 0x70 JUMPI PUSH1 0x0 DUP1 REVERT JUMPDEST POP PUSH2 0x79 PUSH2 0x3D9 JUMP JUMPDEST PUSH1 0x40 MLOAD PUSH2 0x86 SWAP2 SWAP1 PUSH2 0x2060 JUMP JUMPDEST PUSH1 0x40 MLOAD DUP1 SWAP2 SUB SWAP1 RETURN JUMPDEST PUSH2 0xA9 PUSH1 0x4 DUP1 CALLDATASIZE SUB DUP2 ADD SWAP1 PUSH2 0xA4 SWAP2 SWAP1 PUSH2 0x20F8 JUMP JUMPDEST PUSH2 0x4CB JUMP JUMPDEST STOP JUMPDEST CALLVALUE DUP1 ISZERO PUSH2 0xB7 JUMPI PUSH1 0x0 DUP1 REVERT JUMPDEST POP PUSH2 0xC0 PUSH2 0x78C JUMP JUMPDEST PUSH1 0x40 MLOAD PUSH2 0xCD SWAP2 SWAP1 PUSH2 0x21B7 JUMP JUMPDEST PUSH1 0x40 MLOAD DUP1 SWAP2 SUB SWAP1 RETURN JUMPDEST CALLVALUE DUP1 ISZERO PUSH2 0xE2 JUMPI PUSH1 0x0 DUP1 REVERT JUMPDEST POP PUSH2 0xFD PUSH1 0x4 DUP1 CALLDATASIZE SUB DUP2 ADD SWAP1 PUSH2 0xF8 SWAP2 SWAP1 PUSH2 0x232B JUMP JUMPDEST PUSH2 0x7B2 JUMP JUMPDEST PUSH1 0x40 MLOAD PUSH2 0x10A SWAP2 SWAP1 PUSH2 0x23A5 JUMP JUMPDEST PUSH1 0x40 MLOAD DUP1 SWAP2 SUB SWAP1 RETURN JUMPDEST CALLVALUE DUP1 ISZERO PUSH2 0x11F JUMPI PUSH1 0x0 DUP1 REVERT JUMPDEST POP PUSH2 0x13A PUSH1 0x4 DUP1 CALLDATASIZE SUB DUP2 ADD SWAP1 PUSH2 0x135 SWAP2 SWAP1 PUSH2 0x23C0 JUMP JUMPDEST PUSH2 0x844 JUMP JUMPDEST PUSH1 0x40 MLOAD PUSH2 0x147 SWAP2 SWAP1 PUSH2 0x242B JUMP JUMPDEST PUSH1 0x40 MLOAD DUP1 SWAP2 SUB SWAP1 RETURN JUMPDEST PUSH1 0x0 PUSH1 0x7 PUSH1 0x0 CALLER PUSH20 0xFFFFFFFFFFFFFFFFFFFFFFFFFFFFFFFFFFFFFFFF AND PUSH20 0xFFFFFFFFFFFFFFFFFFFFFFFFFFFFFFFFFFFFFFFF AND DUP2 MSTORE PUSH1 0x20 ADD SWAP1 DUP2 MSTORE PUSH1 0x20 ADD PUSH1 0x0 KECCAK256 PUSH1 0x0 ADD DUP1 SLOAD DUP1 PUSH1 0x20 MUL PUSH1 0x20 ADD PUSH1 0x40 MLOAD SWAP1 DUP2 ADD PUSH1 0x40 MSTORE DUP1 SWAP3 SWAP2 SWAP1 DUP2 DUP2 MSTORE PUSH1 0x20 ADD DUP3 DUP1 SLOAD DUP1 ISZERO PUSH2 0x1DE JUMPI PUSH1 0x20 MUL DUP3 ADD SWAP2 SWAP1 PUSH1 0x0 MSTORE PUSH1 0x20 PUSH1 0x0 KECCAK256 SWAP1 JUMPDEST DUP2 SLOAD DUP2 MSTORE PUSH1 0x20 ADD SWAP1 PUSH1 0x1 ADD SWAP1 DUP1 DUP4 GT PUSH2 0x1CA JUMPI JUMPDEST POP POP POP POP POP SWAP1 POP PUSH1 0x0 PUSH2 0x1F1 PUSH1 0x0 PUSH2 0xAFE JUMP JUMPDEST SWAP1 POP PUSH1 0x0 JUMPDEST PUSH1 0x2 SLOAD DUP2 LT ISZERO PUSH2 0x239 JUMPI PUSH2 0x224 DUP3 DUP5 DUP4 DUP2 MLOAD DUP2 LT PUSH2 0x217 JUMPI PUSH2 0x216 PUSH2 0x2446 JUMP JUMPDEST JUMPDEST PUSH1 0x20 MUL PUSH1 0x20 ADD ADD MLOAD PUSH2 0xB08 JUMP JUMPDEST SWAP2 POP DUP1 DUP1 PUSH2 0x231 SWAP1 PUSH2 0x24A4 JUMP JUMPDEST SWAP2 POP POP PUSH2 0x1F6 JUMP JUMPDEST POP PUSH1 0x0 PUSH2 0x245 DUP3 PUSH2 0xB36 JUMP JUMPDEST SWAP1 POP PUSH1 0x0 PUSH2 0x252 DUP4 PUSH2 0xB36 JUMP JUMPDEST SGT PUSH2 0x292 JUMPI PUSH1 0x40 MLOAD PUSH32 0x8C379A000000000000000000000000000000000000000000000000000000000 DUP2 MSTORE PUSH1 0x4 ADD PUSH2 0x289 SWAP1 PUSH2 0x2549 JUMP JUMPDEST PUSH1 0x40 MLOAD DUP1 SWAP2 SUB SWAP1 REVERT JUMPDEST PUSH1 0x2 SLOAD PUSH8 0xFFFFFFFFFFFFFFFF DUP2 GT ISZERO PUSH2 0x2AE JUMPI PUSH2 0x2AD PUSH2 0x21E8 JUMP JUMPDEST JUMPDEST PUSH1 0x40 MLOAD SWAP1 DUP1 DUP3 MSTORE DUP1 PUSH1 0x20 MUL PUSH1 0x20 ADD DUP3 ADD PUSH1 0x40 MSTORE DUP1 ISZERO PUSH2 0x2DC JUMPI DUP2 PUSH1 0x20 ADD PUSH1 0x20 DUP3 MUL DUP1 CALLDATASIZE DUP4 CALLDATACOPY DUP1 DUP3 ADD SWAP2 POP POP SWAP1 POP JUMPDEST POP PUSH1 0x7 PUSH1 0x0 CALLER PUSH20 0xFFFFFFFFFFFFFFFFFFFFFFFFFFFFFFFFFFFFFFFF AND PUSH20 0xFFFFFFFFFFFFFFFFFFFFFFFFFFFFFFFFFFFFFFFF AND DUP2 MSTORE PUSH1 0x20 ADD SWAP1 DUP2 MSTORE PUSH1 0x20 ADD PUSH1 0x0 KECCAK256 PUSH1 0x0 ADD SWAP1 DUP1 MLOAD SWAP1 PUSH1 0x20 ADD SWAP1 PUSH2 0x332 SWAP3 SWAP2 SWAP1 PUSH2 0x1F2E JUMP JUMPDEST POP PUSH1 0x0 DUP1 SLOAD SWAP1 PUSH2 0x100 EXP SWAP1 DIV PUSH20 0xFFFFFFFFFFFFFFFFFFFFFFFFFFFFFFFFFFFFFFFF AND PUSH20 0xFFFFFFFFFFFFFFFFFFFFFFFFFFFFFFFFFFFFFFFF AND PUSH4 0x23B872DD ADDRESS CALLER DUP5 PUSH1 0x40 MLOAD DUP5 PUSH4 0xFFFFFFFF AND PUSH1 0xE0 SHL DUP2 MSTORE PUSH1 0x4 ADD PUSH2 0x390 SWAP4 SWAP3 SWAP2 SWAP1 PUSH2 0x2599 JUMP JUMPDEST PUSH1 0x20 PUSH1 0x40 MLOAD DUP1 DUP4 SUB DUP2 PUSH1 0x0 DUP8 GAS CALL ISZERO DUP1 ISZERO PUSH2 0x3AF JUMPI RETURNDATASIZE PUSH1 0x0 DUP1 RETURNDATACOPY RETURNDATASIZE PUSH1 0x0 REVERT JUMPDEST POP POP POP POP PUSH1 0x40 MLOAD RETURNDATASIZE PUSH1 0x1F NOT PUSH1 0x1F DUP3 ADD AND DUP3 ADD DUP1 PUSH1 0x40 MSTORE POP DUP2 ADD SWAP1 PUSH2 0x3D3 SWAP2 SWAP1 PUSH2 0x2608 JUMP JUMPDEST POP POP POP POP JUMP JUMPDEST PUSH1 0x60 PUSH1 0x0 PUSH1 0x2 SLOAD PUSH8 0xFFFFFFFFFFFFFFFF DUP2 GT ISZERO PUSH2 0x3F9 JUMPI PUSH2 0x3F8 PUSH2 0x21E8 JUMP JUMPDEST JUMPDEST PUSH1 0x40 MLOAD SWAP1 DUP1 DUP3 MSTORE DUP1 PUSH1 0x20 MUL PUSH1 0x20 ADD DUP3 ADD PUSH1 0x40 MSTORE DUP1 ISZERO PUSH2 0x427 JUMPI DUP2 PUSH1 0x20 ADD PUSH1 0x20 DUP3 MUL DUP1 CALLDATASIZE DUP4 CALLDATACOPY DUP1 DUP3 ADD SWAP2 POP POP SWAP1 POP JUMPDEST POP SWAP1 POP PUSH1 0x0 JUMPDEST PUSH1 0x2 SLOAD DUP2 LT ISZERO PUSH2 0x4C3 JUMPI PUSH2 0x491 DUP2 PUSH1 0x3 DUP1 SLOAD DUP1 PUSH1 0x20 MUL PUSH1 0x20 ADD PUSH1 0x40 MLOAD SWAP1 DUP2 ADD PUSH1 0x40 MSTORE DUP1 SWAP3 SWAP2 SWAP1 DUP2 DUP2 MSTORE PUSH1 0x20 ADD DUP3 DUP1 SLOAD DUP1 ISZERO PUSH2 0x487 JUMPI PUSH1 0x20 MUL DUP3 ADD SWAP2 SWAP1 PUSH1 0x0 MSTORE PUSH1 0x20 PUSH1 0x0 KECCAK256 SWAP1 JUMPDEST DUP2 SLOAD DUP2 MSTORE PUSH1 0x20 ADD SWAP1 PUSH1 0x1 ADD SWAP1 DUP1 DUP4 GT PUSH2 0x473 JUMPI JUMPDEST POP POP POP POP POP PUSH2 0x844 JUMP JUMPDEST DUP3 DUP3 DUP2 MLOAD DUP2 LT PUSH2 0x4A4 JUMPI PUSH2 0x4A3 PUSH2 0x2446 JUMP JUMPDEST JUMPDEST PUSH1 0x20 MUL PUSH1 0x20 ADD ADD DUP2 DUP2 MSTORE POP POP DUP1 DUP1 PUSH2 0x4BB SWAP1 PUSH2 0x24A4 JUMP JUMPDEST SWAP2 POP POP PUSH2 0x42D JUMP JUMPDEST POP DUP1 SWAP2 POP POP SWAP1 JUMP JUMPDEST PUSH1 0x0 PUSH1 0x2 SLOAD PUSH8 0xFFFFFFFFFFFFFFFF DUP2 GT ISZERO PUSH2 0x4E9 JUMPI PUSH2 0x4E8 PUSH2 0x21E8 JUMP JUMPDEST JUMPDEST PUSH1 0x40 MLOAD SWAP1 DUP1 DUP3 MSTORE DUP1 PUSH1 0x20 MUL PUSH1 0x20 ADD DUP3 ADD PUSH1 0x40 MSTORE DUP1 ISZERO PUSH2 0x517 JUMPI DUP2 PUSH1 0x20 ADD PUSH1 0x20 DUP3 MUL DUP1 CALLDATASIZE DUP4 CALLDATACOPY DUP1 DUP3 ADD SWAP2 POP POP SWAP1 POP JUMPDEST POP SWAP1 POP DUP2 DUP2 DUP5 DUP2 MLOAD DUP2 LT PUSH2 0x52E JUMPI PUSH2 0x52D PUSH2 0x2446 JUMP JUMPDEST JUMPDEST PUSH1 0x20 MUL PUSH1 0x20 ADD ADD DUP2 DUP2 MSTORE POP POP PUSH1 0x0 PUSH1 0x3 DUP1 SLOAD DUP1 PUSH1 0x20 MUL PUSH1 0x20 ADD PUSH1 0x40 MLOAD SWAP1 DUP2 ADD PUSH1 0x40 MSTORE DUP1 SWAP3 SWAP2 SWAP1 DUP2 DUP2 MSTORE PUSH1 0x20 ADD DUP3 DUP1 SLOAD DUP1 ISZERO PUSH2 0x588 JUMPI PUSH1 0x20 MUL DUP3 ADD SWAP2 SWAP1 PUSH1 0x0 MSTORE PUSH1 0x20 PUSH1 0x0 KECCAK256 SWAP1 JUMPDEST DUP2 SLOAD DUP2 MSTORE PUSH1 0x20 ADD SWAP1 PUSH1 0x1 ADD SWAP1 DUP1 DUP4 GT PUSH2 0x574 JUMPI JUMPDEST POP POP POP POP POP SWAP1 POP PUSH1 0x0 PUSH1 0x2 SLOAD PUSH8 0xFFFFFFFFFFFFFFFF DUP2 GT ISZERO PUSH2 0x5AD JUMPI PUSH2 0x5AC PUSH2 0x21E8 JUMP JUMPDEST JUMPDEST PUSH1 0x40 MLOAD SWAP1 DUP1 DUP3 MSTORE DUP1 PUSH1 0x20 MUL PUSH1 0x20 ADD DUP3 ADD PUSH1 0x40 MSTORE DUP1 ISZERO PUSH2 0x5DB JUMPI DUP2 PUSH1 0x20 ADD PUSH1 0x20 DUP3 MUL DUP1 CALLDATASIZE DUP4 CALLDATACOPY DUP1 DUP3 ADD SWAP2 POP POP SWAP1 POP JUMPDEST POP SWAP1 POP PUSH1 0x0 JUMPDEST PUSH1 0x2 SLOAD DUP2 LT ISZERO PUSH2 0x65B JUMPI PUSH2 0x629 DUP4 DUP3 DUP2 MLOAD DUP2 LT PUSH2 0x601 JUMPI PUSH2 0x600 PUSH2 0x2446 JUMP JUMPDEST JUMPDEST PUSH1 0x20 MUL PUSH1 0x20 ADD ADD MLOAD DUP6 DUP4 DUP2 MLOAD DUP2 LT PUSH2 0x61C JUMPI PUSH2 0x61B PUSH2 0x2446 JUMP JUMPDEST JUMPDEST PUSH1 0x20 MUL PUSH1 0x20 ADD ADD MLOAD PUSH2 0xB08 JUMP JUMPDEST DUP3 DUP3 DUP2 MLOAD DUP2 LT PUSH2 0x63C JUMPI PUSH2 0x63B PUSH2 0x2446 JUMP JUMPDEST JUMPDEST PUSH1 0x20 MUL PUSH1 0x20 ADD ADD DUP2 DUP2 MSTORE POP POP DUP1 DUP1 PUSH2 0x653 SWAP1 PUSH2 0x24A4 JUMP JUMPDEST SWAP2 POP POP PUSH2 0x5E1 JUMP JUMPDEST POP PUSH1 0x0 PUSH2 0x667 DUP4 PUSH2 0x7B2 JUMP JUMPDEST SWAP1 POP PUSH1 0x0 PUSH2 0x674 DUP4 PUSH2 0x7B2 JUMP JUMPDEST SWAP1 POP PUSH1 0x0 PUSH2 0x68A PUSH2 0x685 DUP4 DUP6 PUSH2 0xB40 JUMP JUMPDEST PUSH2 0xB36 JUMP JUMPDEST SWAP1 POP PUSH1 0x0 DUP1 SLOAD SWAP1 PUSH2 0x100 EXP SWAP1 DIV PUSH20 0xFFFFFFFFFFFFFFFFFFFFFFFFFFFFFFFFFFFFFFFF AND PUSH20 0xFFFFFFFFFFFFFFFFFFFFFFFFFFFFFFFFFFFFFFFF AND PUSH4 0x23B872DD CALLER ADDRESS DUP5 PUSH1 0x40 MLOAD DUP5 PUSH4 0xFFFFFFFF AND PUSH1 0xE0 SHL DUP2 MSTORE PUSH1 0x4 ADD PUSH2 0x6E9 SWAP4 SWAP3 SWAP2 SWAP1 PUSH2 0x2599 JUMP JUMPDEST PUSH1 0x20 PUSH1 0x40 MLOAD DUP1 DUP4 SUB DUP2 PUSH1 0x0 DUP8 GAS CALL ISZERO DUP1 ISZERO PUSH2 0x708 JUMPI RETURNDATASIZE PUSH1 0x0 DUP1 RETURNDATACOPY RETURNDATASIZE PUSH1 0x0 REVERT JUMPDEST POP POP POP POP PUSH1 0x40 MLOAD RETURNDATASIZE PUSH1 0x1F NOT PUSH1 0x1F DUP3 ADD AND DUP3 ADD DUP1 PUSH1 0x40 MSTORE POP DUP2 ADD SWAP1 PUSH2 0x72C SWAP2 SWAP1 PUSH2 0x2608 JUMP JUMPDEST PUSH2 0x76B JUMPI PUSH1 0x40 MLOAD PUSH32 0x8C379A000000000000000000000000000000000000000000000000000000000 DUP2 MSTORE PUSH1 0x4 ADD PUSH2 0x762 SWAP1 PUSH2 0x2681 JUMP JUMPDEST PUSH1 0x40 MLOAD DUP1 SWAP2 SUB SWAP1 REVERT JUMPDEST DUP4 PUSH1 0x3 SWAP1 DUP1 MLOAD SWAP1 PUSH1 0x20 ADD SWAP1 PUSH2 0x781 SWAP3 SWAP2 SWAP1 PUSH2 0x1F2E JUMP JUMPDEST POP POP POP POP POP POP POP POP POP JUMP JUMPDEST PUSH1 0x1 PUSH1 0x0 SWAP1 SLOAD SWAP1 PUSH2 0x100 EXP SWAP1 DIV PUSH20 0xFFFFFFFFFFFFFFFFFFFFFFFFFFFFFFFFFFFFFFFF AND DUP2 JUMP JUMPDEST PUSH1 0x0 PUSH1 0x40 MLOAD PUSH1 0x20 ADD PUSH2 0x7C3 SWAP1 PUSH2 0x26F8 JUMP JUMPDEST PUSH1 0x40 MLOAD PUSH1 0x20 DUP2 DUP4 SUB SUB DUP2 MSTORE SWAP1 PUSH1 0x40 MSTORE DUP1 MLOAD SWAP1 PUSH1 0x20 ADD KECCAK256 PUSH1 0x6 PUSH1 0x40 MLOAD PUSH1 0x20 ADD PUSH2 0x7EB SWAP2 SWAP1 PUSH2 0x2805 JUMP JUMPDEST PUSH1 0x40 MLOAD PUSH1 0x20 DUP2 DUP4 SUB SUB DUP2 MSTORE SWAP1 PUSH1 0x40 MSTORE DUP1 MLOAD SWAP1 PUSH1 0x20 ADD KECCAK256 SUB PUSH2 0x819 JUMPI PUSH2 0x812 PUSH1 0x5 SLOAD DUP4 PUSH2 0xB6E JUMP JUMPDEST SWAP1 POP PUSH2 0x83F JUMP JUMPDEST PUSH1 0x0 PUSH2 0x82F PUSH1 0x4 SLOAD PUSH2 0x82A DUP6 PUSH2 0xBF0 JUMP JUMPDEST PUSH2 0xC4E JUMP JUMPDEST SWAP1 POP PUSH2 0x83B DUP2 DUP5 PUSH2 0xB6E JUMP JUMPDEST SWAP2 POP POP JUMPDEST SWAP2 SWAP1 POP JUMP JUMPDEST PUSH1 0x0 PUSH1 0x40 MLOAD PUSH1 0x20 ADD PUSH2 0x855 SWAP1 PUSH2 0x26F8 JUMP JUMPDEST PUSH1 0x40 MLOAD PUSH1 0x20 DUP2 DUP4 SUB SUB DUP2 MSTORE SWAP1 PUSH1 0x40 MSTORE DUP1 MLOAD SWAP1 PUSH1 0x20 ADD KECCAK256 PUSH1 0x6 PUSH1 0x40 MLOAD PUSH1 0x20 ADD PUSH2 0x87D SWAP2 SWAP1 PUSH2 0x2805 JUMP JUMPDEST PUSH1 0x40 MLOAD PUSH1 0x20 DUP2 DUP4 SUB SUB DUP2 MSTORE SWAP1 PUSH1 0x40 MSTORE DUP1 MLOAD SWAP1 PUSH1 0x20 ADD KECCAK256 SUB PUSH2 0x8E6 JUMPI PUSH2 0x8DF PUSH2 0x8DA PUSH2 0x8CC PUSH2 0x8C7 DUP6 DUP8 DUP2 MLOAD DUP2 LT PUSH2 0x8B7 JUMPI PUSH2 0x8B6 PUSH2 0x2446 JUMP JUMPDEST JUMPDEST PUSH1 0x20 MUL PUSH1 0x20 ADD ADD MLOAD PUSH1 0x5 SLOAD PUSH2 0xDDE JUMP JUMPDEST PUSH2 0xF77 JUMP JUMPDEST PUSH2 0x8D5 DUP6 PUSH2 0xBF0 JUMP JUMPDEST PUSH2 0xDDE JUMP JUMPDEST PUSH2 0xB36 JUMP JUMPDEST SWAP1 POP PUSH2 0xAF8 JUMP JUMPDEST PUSH1 0x0 PUSH2 0x8FC PUSH1 0x4 SLOAD PUSH2 0x8F7 DUP6 PUSH2 0xBF0 JUMP JUMPDEST PUSH2 0xC4E JUMP JUMPDEST SWAP1 POP PUSH1 0x0 DUP4 MLOAD PUSH8 0xFFFFFFFFFFFFFFFF DUP2 GT ISZERO PUSH2 0x91B JUMPI PUSH2 0x91A PUSH2 0x21E8 JUMP JUMPDEST JUMPDEST PUSH1 0x40 MLOAD SWAP1 DUP1 DUP3 MSTORE DUP1 PUSH1 0x20 MUL PUSH1 0x20 ADD DUP3 ADD PUSH1 0x40 MSTORE DUP1 ISZERO PUSH2 0x949 JUMPI DUP2 PUSH1 0x20 ADD PUSH1 0x20 DUP3 MUL DUP1 CALLDATASIZE DUP4 CALLDATACOPY DUP1 DUP3 ADD SWAP2 POP POP SWAP1 POP JUMPDEST POP SWAP1 POP PUSH1 0x0 JUMPDEST PUSH1 0x2 SLOAD DUP2 LT ISZERO PUSH2 0x9B7 JUMPI PUSH2 0x985 PUSH2 0x980 DUP7 DUP4 DUP2 MLOAD DUP2 LT PUSH2 0x972 JUMPI PUSH2 0x971 PUSH2 0x2446 JUMP JUMPDEST JUMPDEST PUSH1 0x20 MUL PUSH1 0x20 ADD ADD MLOAD DUP6 PUSH2 0xDDE JUMP JUMPDEST PUSH2 0xF77 JUMP JUMPDEST DUP3 DUP3 DUP2 MLOAD DUP2 LT PUSH2 0x998 JUMPI PUSH2 0x997 PUSH2 0x2446 JUMP JUMPDEST JUMPDEST PUSH1 0x20 MUL PUSH1 0x20 ADD ADD DUP2 DUP2 MSTORE POP POP DUP1 DUP1 PUSH2 0x9AF SWAP1 PUSH2 0x24A4 JUMP JUMPDEST SWAP2 POP POP PUSH2 0x94F JUMP JUMPDEST POP PUSH1 0x0 PUSH2 0x9C3 DUP3 PUSH2 0xBF0 JUMP JUMPDEST SWAP1 POP PUSH1 0x0 PUSH2 0x9DB PUSH1 0x4 SLOAD PUSH2 0x9D6 DUP5 PUSH2 0x1014 JUMP JUMPDEST PUSH2 0xC4E JUMP JUMPDEST SWAP1 POP PUSH1 0x0 JUMPDEST PUSH1 0x2 SLOAD DUP2 LT ISZERO PUSH2 0xA6B JUMPI PUSH2 0xA39 DUP8 DUP3 DUP2 MLOAD DUP2 LT PUSH2 0xA00 JUMPI PUSH2 0x9FF PUSH2 0x2446 JUMP JUMPDEST JUMPDEST PUSH1 0x20 MUL PUSH1 0x20 ADD ADD MLOAD PUSH2 0xA34 PUSH2 0xA2F DUP11 DUP6 DUP2 MLOAD DUP2 LT PUSH2 0xA21 JUMPI PUSH2 0xA20 PUSH2 0x2446 JUMP JUMPDEST JUMPDEST PUSH1 0x20 MUL PUSH1 0x20 ADD ADD MLOAD DUP10 PUSH2 0xDDE JUMP JUMPDEST PUSH2 0xF77 JUMP JUMPDEST PUSH2 0xC4E JUMP JUMPDEST DUP5 DUP3 DUP2 MLOAD DUP2 LT PUSH2 0xA4C JUMPI PUSH2 0xA4B PUSH2 0x2446 JUMP JUMPDEST JUMPDEST PUSH1 0x20 MUL PUSH1 0x20 ADD ADD DUP2 DUP2 MSTORE POP POP DUP1 DUP1 PUSH2 0xA63 SWAP1 PUSH2 0x24A4 JUMP JUMPDEST SWAP2 POP POP PUSH2 0x9E0 JUMP JUMPDEST POP PUSH1 0x0 PUSH2 0xABC PUSH2 0xAAE PUSH2 0xA7D DUP10 PUSH2 0xBF0 JUMP JUMPDEST PUSH2 0xAA9 PUSH2 0xAA4 DUP12 DUP14 DUP2 MLOAD DUP2 LT PUSH2 0xA96 JUMPI PUSH2 0xA95 PUSH2 0x2446 JUMP JUMPDEST JUMPDEST PUSH1 0x20 MUL PUSH1 0x20 ADD ADD MLOAD DUP11 PUSH2 0xDDE JUMP JUMPDEST PUSH2 0xF77 JUMP JUMPDEST PUSH2 0xC4E JUMP JUMPDEST PUSH2 0xAB7 DUP7 PUSH2 0xBF0 JUMP JUMPDEST PUSH2 0xB40 JUMP JUMPDEST SWAP1 POP PUSH1 0x0 PUSH2 0xAD2 PUSH2 0xACC DUP10 PUSH2 0xBF0 JUMP JUMPDEST DUP6 PUSH2 0xC4E JUMP JUMPDEST SWAP1 POP PUSH2 0xAEF PUSH2 0xAEA DUP5 PUSH2 0xAE5 DUP6 DUP6 PUSH2 0xDDE JUMP JUMPDEST PUSH2 0xB08 JUMP JUMPDEST PUSH2 0xB36 JUMP JUMPDEST SWAP7 POP POP POP POP POP POP POP JUMPDEST SWAP3 SWAP2 POP POP JUMP JUMPDEST PUSH1 0x0 DUP2 SWAP1 POP SWAP2 SWAP1 POP JUMP JUMPDEST PUSH1 0x0 PUSH2 0xB2E PUSH2 0xB16 DUP4 PUSH2 0x105C JUMP JUMPDEST PUSH2 0xB1F DUP6 PUSH2 0x105C JUMP JUMPDEST PUSH2 0xB29 SWAP2 SWAP1 PUSH2 0x281C JUMP JUMPDEST PUSH2 0x1066 JUMP JUMPDEST SWAP1 POP SWAP3 SWAP2 POP POP JUMP JUMPDEST PUSH1 0x0 DUP2 SWAP1 POP SWAP2 SWAP1 POP JUMP JUMPDEST PUSH1 0x0 PUSH2 0xB66 PUSH2 0xB4E DUP4 PUSH2 0x105C JUMP JUMPDEST PUSH2 0xB57 DUP6 PUSH2 0x105C JUMP JUMPDEST PUSH2 0xB61 SWAP2 SWAP1 PUSH2 0x2860 JUMP JUMPDEST PUSH2 0x1066 JUMP JUMPDEST SWAP1 POP SWAP3 SWAP2 POP POP JUMP JUMPDEST PUSH1 0x0 DUP1 PUSH2 0xB7B PUSH1 0x0 PUSH2 0xAFE JUMP JUMPDEST SWAP1 POP PUSH1 0x0 JUMPDEST PUSH1 0x2 SLOAD DUP2 LT ISZERO PUSH2 0xBD4 JUMPI PUSH2 0xBBF DUP3 PUSH2 0xBBA PUSH2 0xBB5 DUP8 DUP6 DUP2 MLOAD DUP2 LT PUSH2 0xBA7 JUMPI PUSH2 0xBA6 PUSH2 0x2446 JUMP JUMPDEST JUMPDEST PUSH1 0x20 MUL PUSH1 0x20 ADD ADD MLOAD DUP10 PUSH2 0xDDE JUMP JUMPDEST PUSH2 0xF77 JUMP JUMPDEST PUSH2 0xB08 JUMP JUMPDEST SWAP2 POP DUP1 DUP1 PUSH2 0xBCC SWAP1 PUSH2 0x24A4 JUMP JUMPDEST SWAP2 POP POP PUSH2 0xB80 JUMP JUMPDEST POP PUSH2 0xBE7 DUP5 PUSH2 0xBE2 DUP4 PUSH2 0x1014 JUMP JUMPDEST PUSH2 0xC4E JUMP JUMPDEST SWAP2 POP POP SWAP3 SWAP2 POP POP JUMP JUMPDEST PUSH1 0x0 DUP1 PUSH2 0xBFD PUSH1 0x0 PUSH2 0xAFE JUMP JUMPDEST SWAP1 POP PUSH1 0x0 JUMPDEST DUP4 MLOAD DUP2 LT ISZERO PUSH2 0xC44 JUMPI PUSH2 0xC2F DUP3 DUP6 DUP4 DUP2 MLOAD DUP2 LT PUSH2 0xC22 JUMPI PUSH2 0xC21 PUSH2 0x2446 JUMP JUMPDEST JUMPDEST PUSH1 0x20 MUL PUSH1 0x20 ADD ADD MLOAD PUSH2 0xB08 JUMP JUMPDEST SWAP2 POP DUP1 DUP1 PUSH2 0xC3C SWAP1 PUSH2 0x24A4 JUMP JUMPDEST SWAP2 POP POP PUSH2 0xC02 JUMP JUMPDEST POP DUP1 SWAP2 POP POP SWAP2 SWAP1 POP JUMP JUMPDEST PUSH1 0x0 DUP1 PUSH2 0xC5A DUP5 PUSH2 0x105C JUMP JUMPDEST SWAP1 POP PUSH1 0x0 PUSH2 0xC67 DUP5 PUSH2 0x105C JUMP JUMPDEST SWAP1 POP PUSH32 0x8000000000000000000000000000000000000000000000000000000000000000 DUP3 EQ DUP1 PUSH2 0xCB6 JUMPI POP PUSH32 0x8000000000000000000000000000000000000000000000000000000000000000 DUP2 EQ JUMPDEST ISZERO PUSH2 0xCED JUMPI PUSH1 0x40 MLOAD PUSH32 0xA6070C2500000000000000000000000000000000000000000000000000000000 DUP2 MSTORE PUSH1 0x4 ADD PUSH1 0x40 MLOAD DUP1 SWAP2 SUB SWAP1 REVERT JUMPDEST PUSH1 0x0 DUP1 PUSH1 0x0 DUP5 SLT PUSH2 0xCFE JUMPI DUP4 PUSH2 0xD03 JUMP JUMPDEST DUP4 PUSH1 0x0 SUB JUMPDEST SWAP2 POP PUSH1 0x0 DUP4 SLT PUSH2 0xD13 JUMPI DUP3 PUSH2 0xD18 JUMP JUMPDEST DUP3 PUSH1 0x0 SUB JUMPDEST SWAP1 POP PUSH1 0x0 PUSH2 0xD26 DUP4 DUP4 PUSH2 0x1070 JUMP JUMPDEST SWAP1 POP PUSH32 0x7FFFFFFFFFFFFFFFFFFFFFFFFFFFFFFFFFFFFFFFFFFFFFFFFFFFFFFFFFFFFFFF DUP2 GT ISZERO PUSH2 0xD8F JUMPI DUP8 DUP8 PUSH1 0x40 MLOAD PUSH32 0x120B5B4300000000000000000000000000000000000000000000000000000000 DUP2 MSTORE PUSH1 0x4 ADD PUSH2 0xD86 SWAP3 SWAP2 SWAP1 PUSH2 0x28A3 JUMP JUMPDEST PUSH1 0x40 MLOAD DUP1 SWAP2 SUB SWAP1 REVERT JUMPDEST PUSH1 0x0 PUSH32 0xFFFFFFFFFFFFFFFFFFFFFFFFFFFFFFFFFFFFFFFFFFFFFFFFFFFFFFFFFFFFFFFF DUP6 DUP8 XOR SGT SWAP1 POP PUSH2 0xDD0 DUP2 PUSH2 0xDC9 JUMPI DUP3 PUSH1 0x0 SUB PUSH2 0xDCB JUMP JUMPDEST DUP3 JUMPDEST PUSH2 0x1066 JUMP JUMPDEST SWAP7 POP POP POP POP POP POP POP SWAP3 SWAP2 POP POP JUMP JUMPDEST PUSH1 0x0 DUP1 PUSH2 0xDEA DUP5 PUSH2 0x105C JUMP JUMPDEST SWAP1 POP PUSH1 0x0 PUSH2 0xDF7 DUP5 PUSH2 0x105C JUMP JUMPDEST SWAP1 POP PUSH32 0x8000000000000000000000000000000000000000000000000000000000000000 DUP3 EQ DUP1 PUSH2 0xE46 JUMPI POP PUSH32 0x8000000000000000000000000000000000000000000000000000000000000000 DUP2 EQ JUMPDEST ISZERO PUSH2 0xE7D JUMPI PUSH1 0x40 MLOAD PUSH32 0x9FE2B45000000000000000000000000000000000000000000000000000000000 DUP2 MSTORE PUSH1 0x4 ADD PUSH1 0x40 MLOAD DUP1 SWAP2 SUB SWAP1 REVERT JUMPDEST PUSH1 0x0 DUP1 PUSH1 0x0 DUP5 SLT PUSH2 0xE8E JUMPI DUP4 PUSH2 0xE93 JUMP JUMPDEST DUP4 PUSH1 0x0 SUB JUMPDEST SWAP2 POP PUSH1 0x0 DUP4 SLT PUSH2 0xEA3 JUMPI DUP3 PUSH2 0xEA8 JUMP JUMPDEST DUP3 PUSH1 0x0 SUB JUMPDEST SWAP1 POP PUSH1 0x0 PUSH2 0xEBF DUP4 PUSH8 0xDE0B6B3A7640000 DUP5 PUSH2 0x115A JUMP JUMPDEST SWAP1 POP PUSH32 0x7FFFFFFFFFFFFFFFFFFFFFFFFFFFFFFFFFFFFFFFFFFFFFFFFFFFFFFFFFFFFFFF DUP2 GT ISZERO PUSH2 0xF28 JUMPI DUP8 DUP8 PUSH1 0x40 MLOAD PUSH32 0xD49C26B300000000000000000000000000000000000000000000000000000000 DUP2 MSTORE PUSH1 0x4 ADD PUSH2 0xF1F SWAP3 SWAP2 SWAP1 PUSH2 0x28A3 JUMP JUMPDEST PUSH1 0x40 MLOAD DUP1 SWAP2 SUB SWAP1 REVERT JUMPDEST PUSH1 0x0 PUSH32 0xFFFFFFFFFFFFFFFFFFFFFFFFFFFFFFFFFFFFFFFFFFFFFFFFFFFFFFFFFFFFFFFF DUP6 DUP8 XOR SGT SWAP1 POP PUSH2 0xF69 DUP2 PUSH2 0xF62 JUMPI DUP3 PUSH1 0x0 SUB PUSH2 0xF64 JUMP JUMPDEST DUP3 JUMPDEST PUSH2 0x1066 JUMP JUMPDEST SWAP7 POP POP POP POP POP POP POP SWAP3 SWAP2 POP POP JUMP JUMPDEST PUSH1 0x0 DUP1 PUSH2 0xF83 DUP4 PUSH2 0x105C JUMP JUMPDEST SWAP1 POP PUSH9 0x736EA4425C11AC630 DUP2 SGT ISZERO PUSH2 0xFD3 JUMPI DUP3 PUSH1 0x40 MLOAD PUSH32 0xCA7EC0C500000000000000000000000000000000000000000000000000000000 DUP2 MSTORE PUSH1 0x4 ADD PUSH2 0xFCA SWAP2 SWAP1 PUSH2 0x23A5 JUMP JUMPDEST PUSH1 0x40 MLOAD DUP1 SWAP2 SUB SWAP1 REVERT JUMPDEST PUSH1 0x0 PUSH8 0x14057B7EF767814F DUP3 MUL SWAP1 POP PUSH2 0x100B PUSH2 0x1006 PUSH8 0xDE0B6B3A7640000 DUP4 DUP2 PUSH2 0x1000 JUMPI PUSH2 0xFFF PUSH2 0x28CC JUMP JUMPDEST JUMPDEST SDIV PUSH2 0x1066 JUMP JUMPDEST PUSH2 0x1274 JUMP JUMPDEST SWAP3 POP POP POP SWAP2 SWAP1 POP JUMP JUMPDEST PUSH1 0x0 PUSH2 0x1055 PUSH8 0x14057B7EF767814F PUSH8 0xDE0B6B3A7640000 PUSH2 0x103C PUSH2 0x1037 DUP7 PUSH2 0x1392 JUMP JUMPDEST PUSH2 0x105C JUMP JUMPDEST PUSH2 0x1046 SWAP2 SWAP1 PUSH2 0x28FB JUMP JUMPDEST PUSH2 0x1050 SWAP2 SWAP1 PUSH2 0x2973 JUMP JUMPDEST PUSH2 0x1066 JUMP JUMPDEST SWAP1 POP SWAP2 SWAP1 POP JUMP JUMPDEST PUSH1 0x0 DUP2 SWAP1 POP SWAP2 SWAP1 POP JUMP JUMPDEST PUSH1 0x0 DUP2 SWAP1 POP SWAP2 SWAP1 POP JUMP JUMPDEST PUSH1 0x0 DUP1 PUSH1 0x0 DUP1 NOT DUP5 DUP7 MULMOD DUP5 DUP7 MUL SWAP3 POP DUP3 DUP2 LT DUP4 DUP3 SUB SUB SWAP2 POP POP PUSH1 0x0 DUP2 SUB PUSH2 0x10B3 JUMPI PUSH8 0xDE0B6B3A7640000 DUP3 DUP2 PUSH2 0x10A9 JUMPI PUSH2 0x10A8 PUSH2 0x28CC JUMP JUMPDEST JUMPDEST DIV SWAP3 POP POP POP PUSH2 0x1154 JUMP JUMPDEST PUSH8 0xDE0B6B3A7640000 DUP2 LT PUSH2 0x1101 JUMPI DUP5 DUP5 PUSH1 0x40 MLOAD PUSH32 0x5173648D00000000000000000000000000000000000000000000000000000000 DUP2 MSTORE PUSH1 0x4 ADD PUSH2 0x10F8 SWAP3 SWAP2 SWAP1 PUSH2 0x29DD JUMP JUMPDEST PUSH1 0x40 MLOAD DUP1 SWAP2 SUB SWAP1 REVERT JUMPDEST PUSH1 0x0 PUSH8 0xDE0B6B3A7640000 DUP6 DUP8 MULMOD SWAP1 POP PUSH32 0xACCB18165BD6FE31AE1CF318DC5B51EEE0E1BA569B88CD74C1773B91FAC10669 PUSH1 0x1 PUSH3 0x40000 DUP1 PUSH1 0x0 SUB DIV ADD DUP5 DUP4 GT DUP5 SUB MUL PUSH3 0x40000 DUP4 DUP7 SUB DIV OR MUL SWAP4 POP POP POP POP JUMPDEST SWAP3 SWAP2 POP POP JUMP JUMPDEST PUSH1 0x0 DUP1 PUSH1 0x0 DUP1 NOT DUP6 DUP8 MULMOD DUP6 DUP8 MUL SWAP3 POP DUP3 DUP2 LT DUP4 DUP3 SUB SUB SWAP2 POP POP PUSH1 0x0 DUP2 SUB PUSH2 0x1195 JUMPI DUP4 DUP3 DUP2 PUSH2 0x118B JUMPI PUSH2 0x118A PUSH2 0x28CC JUMP JUMPDEST JUMPDEST DIV SWAP3 POP POP POP PUSH2 0x126D JUMP JUMPDEST DUP4 DUP2 LT PUSH2 0x11DD JUMPI DUP6 DUP6 DUP6 PUSH1 0x40 MLOAD PUSH32 0x63A0577800000000000000000000000000000000000000000000000000000000 DUP2 MSTORE PUSH1 0x4 ADD PUSH2 0x11D4 SWAP4 SWAP3 SWAP2 SWAP1 PUSH2 0x2A06 JUMP JUMPDEST PUSH1 0x40 MLOAD DUP1 SWAP2 SUB SWAP1 REVERT JUMPDEST PUSH1 0x0 DUP5 DUP7 DUP9 MULMOD SWAP1 POP DUP3 DUP2 GT DUP3 SUB SWAP2 POP DUP1 DUP4 SUB SWAP3 POP PUSH1 0x0 PUSH1 0x1 DUP7 NOT ADD DUP7 AND SWAP1 POP PUSH1 0x0 DUP2 DUP8 DIV SWAP7 POP DUP2 DUP6 DIV SWAP5 POP PUSH1 0x1 DUP3 DUP4 PUSH1 0x0 SUB DIV ADD SWAP1 POP DUP1 DUP5 MUL DUP6 OR SWAP5 POP PUSH1 0x0 PUSH1 0x2 DUP9 PUSH1 0x3 MUL XOR SWAP1 POP DUP1 DUP9 MUL PUSH1 0x2 SUB DUP2 MUL SWAP1 POP DUP1 DUP9 MUL PUSH1 0x2 SUB DUP2 MUL SWAP1 POP DUP1 DUP9 MUL PUSH1 0x2 SUB DUP2 MUL SWAP1 POP DUP1 DUP9 MUL PUSH1 0x2 SUB DUP2 MUL SWAP1 POP DUP1 DUP9 MUL PUSH1 0x2 SUB DUP2 MUL SWAP1 POP DUP1 DUP9 MUL PUSH1 0x2 SUB DUP2 MUL SWAP1 POP DUP1 DUP7 MUL SWAP7 POP POP POP POP POP POP POP JUMPDEST SWAP4 SWAP3 POP POP POP JUMP JUMPDEST PUSH1 0x0 DUP1 PUSH2 0x1280 DUP4 PUSH2 0x105C JUMP JUMPDEST SWAP1 POP PUSH1 0x0 DUP2 SLT ISZERO PUSH2 0x1307 JUMPI PUSH32 0xFFFFFFFFFFFFFFFFFFFFFFFFFFFFFFFFFFFFFFFFFFFFFFFCC22E87F6EB468EEB DUP2 SLT ISZERO PUSH2 0x12BD JUMPI PUSH1 0x0 SWAP2 POP POP PUSH2 0x138D JUMP JUMPDEST PUSH2 0x1300 PUSH2 0x12DC PUSH2 0x12D7 PUSH2 0x12D2 DUP5 PUSH1 0x0 SUB PUSH2 0x1066 JUMP JUMPDEST PUSH2 0x1274 JUMP JUMPDEST PUSH2 0x105C JUMP JUMPDEST PUSH15 0xC097CE7BC90715B34B9F1000000000 DUP2 PUSH2 0x12FA JUMPI PUSH2 0x12F9 PUSH2 0x28CC JUMP JUMPDEST JUMPDEST SDIV PUSH2 0x1066 JUMP JUMPDEST SWAP2 POP PUSH2 0x138B JUMP JUMPDEST PUSH9 0xA688906BD8AFFFFFF DUP2 SGT ISZERO PUSH2 0x1355 JUMPI DUP3 PUSH1 0x40 MLOAD PUSH32 0x360D02800000000000000000000000000000000000000000000000000000000 DUP2 MSTORE PUSH1 0x4 ADD PUSH2 0x134C SWAP2 SWAP1 PUSH2 0x23A5 JUMP JUMPDEST PUSH1 0x40 MLOAD DUP1 SWAP2 SUB SWAP1 REVERT JUMPDEST PUSH1 0x0 PUSH8 0xDE0B6B3A7640000 PUSH1 0x40 DUP4 SWAP1 SHL DUP2 PUSH2 0x1373 JUMPI PUSH2 0x1372 PUSH2 0x28CC JUMP JUMPDEST JUMPDEST SDIV SWAP1 POP PUSH2 0x1387 PUSH2 0x1382 DUP3 PUSH2 0x1525 JUMP JUMPDEST PUSH2 0x1066 JUMP JUMPDEST SWAP3 POP POP JUMPDEST POP JUMPDEST SWAP2 SWAP1 POP JUMP JUMPDEST PUSH1 0x0 DUP1 PUSH2 0x139E DUP4 PUSH2 0x105C JUMP JUMPDEST SWAP1 POP PUSH1 0x0 DUP2 SGT PUSH2 0x13E5 JUMPI DUP3 PUSH1 0x40 MLOAD PUSH32 0x59B101B00000000000000000000000000000000000000000000000000000000 DUP2 MSTORE PUSH1 0x4 ADD PUSH2 0x13DC SWAP2 SWAP1 PUSH2 0x23A5 JUMP JUMPDEST PUSH1 0x40 MLOAD DUP1 SWAP2 SUB SWAP1 REVERT JUMPDEST PUSH1 0x0 PUSH8 0xDE0B6B3A7640000 DUP3 SLT PUSH2 0x13FF JUMPI PUSH1 0x1 SWAP1 POP PUSH2 0x1445 JUMP JUMPDEST PUSH32 0xFFFFFFFFFFFFFFFFFFFFFFFFFFFFFFFFFFFFFFFFFFFFFFFFFFFFFFFFFFFFFFFF SWAP1 POP DUP2 PUSH15 0xC097CE7BC90715B34B9F1000000000 DUP2 PUSH2 0x1441 JUMPI PUSH2 0x1440 PUSH2 0x28CC JUMP JUMPDEST JUMPDEST SDIV SWAP2 POP JUMPDEST PUSH1 0x0 PUSH2 0x1468 PUSH8 0xDE0B6B3A7640000 DUP5 DUP2 PUSH2 0x1462 JUMPI PUSH2 0x1461 PUSH2 0x28CC JUMP JUMPDEST JUMPDEST SDIV PUSH2 0x1E85 JUMP JUMPDEST SWAP1 POP PUSH1 0x0 PUSH8 0xDE0B6B3A7640000 DUP3 MUL SWAP1 POP PUSH1 0x0 DUP3 DUP6 SWAP1 SAR SWAP1 POP PUSH8 0xDE0B6B3A7640000 DUP2 SUB PUSH2 0x14A7 JUMPI PUSH2 0x149B DUP5 DUP4 MUL PUSH2 0x1066 JUMP JUMPDEST SWAP6 POP POP POP POP POP POP PUSH2 0x1520 JUMP JUMPDEST PUSH1 0x0 PUSH8 0x1BC16D674EC80000 SWAP1 POP PUSH1 0x0 PUSH8 0x6F05B59D3B20000 SWAP1 POP JUMPDEST PUSH1 0x0 DUP2 SGT ISZERO PUSH2 0x1508 JUMPI PUSH8 0xDE0B6B3A7640000 DUP4 DUP5 MUL DUP2 PUSH2 0x14E5 JUMPI PUSH2 0x14E4 PUSH2 0x28CC JUMP JUMPDEST JUMPDEST SDIV SWAP3 POP DUP2 DUP4 SLT PUSH2 0x14FC JUMPI DUP1 DUP5 ADD SWAP4 POP PUSH1 0x1 DUP4 SWAP1 SAR SWAP3 POP JUMPDEST PUSH1 0x1 DUP2 SWAP1 SAR SWAP1 POP PUSH2 0x14C2 JUMP JUMPDEST POP DUP5 DUP4 MUL SWAP3 POP PUSH2 0x1517 DUP4 PUSH2 0x1066 JUMP JUMPDEST SWAP7 POP POP POP POP POP POP POP JUMPDEST SWAP2 SWAP1 POP JUMP JUMPDEST PUSH1 0x0 PUSH24 0x800000000000000000000000000000000000000000000000 SWAP1 POP PUSH1 0x0 PUSH8 0xFF00000000000000 DUP4 AND GT ISZERO PUSH2 0x1686 JUMPI PUSH1 0x0 PUSH8 0x8000000000000000 DUP4 AND GT ISZERO PUSH2 0x157B JUMPI PUSH1 0x40 PUSH9 0x16A09E667F3BCC909 DUP3 MUL SWAP1 SHR SWAP1 POP JUMPDEST PUSH1 0x0 PUSH8 0x4000000000000000 DUP4 AND GT ISZERO PUSH2 0x15A1 JUMPI PUSH1 0x40 PUSH9 0x1306FE0A31B7152DF DUP3 MUL SWAP1 SHR SWAP1 POP JUMPDEST PUSH1 0x0 PUSH8 0x2000000000000000 DUP4 AND GT ISZERO PUSH2 0x15C7 JUMPI PUSH1 0x40 PUSH9 0x1172B83C7D517ADCE DUP3 MUL SWAP1 SHR SWAP1 POP JUMPDEST PUSH1 0x0 PUSH8 0x1000000000000000 DUP4 AND GT ISZERO PUSH2 0x15ED JUMPI PUSH1 0x40 PUSH9 0x10B5586CF9890F62A DUP3 MUL SWAP1 SHR SWAP1 POP JUMPDEST PUSH1 0x0 PUSH8 0x800000000000000 DUP4 AND GT ISZERO PUSH2 0x1613 JUMPI PUSH1 0x40 PUSH9 0x1059B0D31585743AE DUP3 MUL SWAP1 SHR SWAP1 POP JUMPDEST PUSH1 0x0 PUSH8 0x400000000000000 DUP4 AND GT ISZERO PUSH2 0x1639 JUMPI PUSH1 0x40 PUSH9 0x102C9A3E778060EE7 DUP3 MUL SWAP1 SHR SWAP1 POP JUMPDEST PUSH1 0x0 PUSH8 0x200000000000000 DUP4 AND GT ISZERO PUSH2 0x165F JUMPI PUSH1 0x40 PUSH9 0x10163DA9FB33356D8 DUP3 MUL SWAP1 SHR SWAP1 POP JUMPDEST PUSH1 0x0 PUSH8 0x100000000000000 DUP4 AND GT ISZERO PUSH2 0x1685 JUMPI PUSH1 0x40 PUSH9 0x100B1AFA5ABCBED61 DUP3 MUL SWAP1 SHR SWAP1 POP JUMPDEST JUMPDEST PUSH1 0x0 PUSH7 0xFF000000000000 DUP4 AND GT ISZERO PUSH2 0x17C1 JUMPI PUSH1 0x0 PUSH7 0x80000000000000 DUP4 AND GT ISZERO PUSH2 0x16BD JUMPI PUSH1 0x40 PUSH9 0x10058C86DA1C09EA2 DUP3 MUL SWAP1 SHR SWAP1 POP JUMPDEST PUSH1 0x0 PUSH7 0x40000000000000 DUP4 AND GT ISZERO PUSH2 0x16E2 JUMPI PUSH1 0x40 PUSH9 0x1002C605E2E8CEC50 DUP3 MUL SWAP1 SHR SWAP1 POP JUMPDEST PUSH1 0x0 PUSH7 0x20000000000000 DUP4 AND GT ISZERO PUSH2 0x1707 JUMPI PUSH1 0x40 PUSH9 0x100162F3904051FA1 DUP3 MUL SWAP1 SHR SWAP1 POP JUMPDEST PUSH1 0x0 PUSH7 0x10000000000000 DUP4 AND GT ISZERO PUSH2 0x172C JUMPI PUSH1 0x40 PUSH9 0x1000B175EFFDC76BA DUP3 MUL SWAP1 SHR SWAP1 POP JUMPDEST PUSH1 0x0 PUSH7 0x8000000000000 DUP4 AND GT ISZERO PUSH2 0x1751 JUMPI PUSH1 0x40 PUSH9 0x100058BA01FB9F96D DUP3 MUL SWAP1 SHR SWAP1 POP JUMPDEST PUSH1 0x0 PUSH7 0x4000000000000 DUP4 AND GT ISZERO PUSH2 0x1776 JUMPI PUSH1 0x40 PUSH9 0x10002C5CC37DA9492 DUP3 MUL SWAP1 SHR SWAP1 POP JUMPDEST PUSH1 0x0 PUSH7 0x2000000000000 DUP4 AND GT ISZERO PUSH2 0x179B JUMPI PUSH1 0x40 PUSH9 0x1000162E525EE0547 DUP3 MUL SWAP1 SHR SWAP1 POP JUMPDEST PUSH1 0x0 PUSH7 0x1000000000000 DUP4 AND GT ISZERO PUSH2 0x17C0 JUMPI PUSH1 0x40 PUSH9 0x10000B17255775C04 DUP3 MUL SWAP1 SHR SWAP1 POP JUMPDEST JUMPDEST PUSH1 0x0 PUSH6 0xFF0000000000 DUP4 AND GT ISZERO PUSH2 0x18F3 JUMPI PUSH1 0x0 PUSH6 0x800000000000 DUP4 AND GT ISZERO PUSH2 0x17F6 JUMPI PUSH1 0x40 PUSH9 0x1000058B91B5BC9AE DUP3 MUL SWAP1 SHR SWAP1 POP JUMPDEST PUSH1 0x0 PUSH6 0x400000000000 DUP4 AND GT ISZERO PUSH2 0x181A JUMPI PUSH1 0x40 PUSH9 0x100002C5C89D5EC6D DUP3 MUL SWAP1 SHR SWAP1 POP JUMPDEST PUSH1 0x0 PUSH6 0x200000000000 DUP4 AND GT ISZERO PUSH2 0x183E JUMPI PUSH1 0x40 PUSH9 0x10000162E43F4F831 DUP3 MUL SWAP1 SHR SWAP1 POP JUMPDEST PUSH1 0x0 PUSH6 0x100000000000 DUP4 AND GT ISZERO PUSH2 0x1862 JUMPI PUSH1 0x40 PUSH9 0x100000B1721BCFC9A DUP3 MUL SWAP1 SHR SWAP1 POP JUMPDEST PUSH1 0x0 PUSH6 0x80000000000 DUP4 AND GT ISZERO PUSH2 0x1886 JUMPI PUSH1 0x40 PUSH9 0x10000058B90CF1E6E DUP3 MUL SWAP1 SHR SWAP1 POP JUMPDEST PUSH1 0x0 PUSH6 0x40000000000 DUP4 AND GT ISZERO PUSH2 0x18AA JUMPI PUSH1 0x40 PUSH9 0x1000002C5C863B73F DUP3 MUL SWAP1 SHR SWAP1 POP JUMPDEST PUSH1 0x0 PUSH6 0x20000000000 DUP4 AND GT ISZERO PUSH2 0x18CE JUMPI PUSH1 0x40 PUSH9 0x100000162E430E5A2 DUP3 MUL SWAP1 SHR SWAP1 POP JUMPDEST PUSH1 0x0 PUSH6 0x10000000000 DUP4 AND GT ISZERO PUSH2 0x18F2 JUMPI PUSH1 0x40 PUSH9 0x1000000B172183551 DUP3 MUL SWAP1 SHR SWAP1 POP JUMPDEST JUMPDEST PUSH1 0x0 PUSH5 0xFF00000000 DUP4 AND GT ISZERO PUSH2 0x1A1C JUMPI PUSH1 0x0 PUSH5 0x8000000000 DUP4 AND GT ISZERO PUSH2 0x1926 JUMPI PUSH1 0x40 PUSH9 0x100000058B90C0B49 DUP3 MUL SWAP1 SHR SWAP1 POP JUMPDEST PUSH1 0x0 PUSH5 0x4000000000 DUP4 AND GT ISZERO PUSH2 0x1949 JUMPI PUSH1 0x40 PUSH9 0x10000002C5C8601CC DUP3 MUL SWAP1 SHR SWAP1 POP JUMPDEST PUSH1 0x0 PUSH5 0x2000000000 DUP4 AND GT ISZERO PUSH2 0x196C JUMPI PUSH1 0x40 PUSH9 0x1000000162E42FFF0 DUP3 MUL SWAP1 SHR SWAP1 POP JUMPDEST PUSH1 0x0 PUSH5 0x1000000000 DUP4 AND GT ISZERO PUSH2 0x198F JUMPI PUSH1 0x40 PUSH9 0x10000000B17217FBB DUP3 MUL SWAP1 SHR SWAP1 POP JUMPDEST PUSH1 0x0 PUSH5 0x800000000 DUP4 AND GT ISZERO PUSH2 0x19B2 JUMPI PUSH1 0x40 PUSH9 0x1000000058B90BFCE DUP3 MUL SWAP1 SHR SWAP1 POP JUMPDEST PUSH1 0x0 PUSH5 0x400000000 DUP4 AND GT ISZERO PUSH2 0x19D5 JUMPI PUSH1 0x40 PUSH9 0x100000002C5C85FE3 DUP3 MUL SWAP1 SHR SWAP1 POP JUMPDEST PUSH1 0x0 PUSH5 0x200000000 DUP4 AND GT ISZERO PUSH2 0x19F8 JUMPI PUSH1 0x40 PUSH9 0x10000000162E42FF1 DUP3 MUL SWAP1 SHR SWAP1 POP JUMPDEST PUSH1 0x0 PUSH5 0x100000000 DUP4 AND GT ISZERO PUSH2 0x1A1B JUMPI PUSH1 0x40 PUSH9 0x100000000B17217F8 DUP3 MUL SWAP1 SHR SWAP1 POP JUMPDEST JUMPDEST PUSH1 0x0 PUSH4 0xFF000000 DUP4 AND GT ISZERO PUSH2 0x1B3C JUMPI PUSH1 0x0 PUSH4 0x80000000 DUP4 AND GT ISZERO PUSH2 0x1A4D JUMPI PUSH1 0x40 PUSH9 0x10000000058B90BFC DUP3 MUL SWAP1 SHR SWAP1 POP JUMPDEST PUSH1 0x0 PUSH4 0x40000000 DUP4 AND GT ISZERO PUSH2 0x1A6F JUMPI PUSH1 0x40 PUSH9 0x1000000002C5C85FE DUP3 MUL SWAP1 SHR SWAP1 POP JUMPDEST PUSH1 0x0 PUSH4 0x20000000 DUP4 AND GT ISZERO PUSH2 0x1A91 JUMPI PUSH1 0x40 PUSH9 0x100000000162E42FF DUP3 MUL SWAP1 SHR SWAP1 POP JUMPDEST PUSH1 0x0 PUSH4 0x10000000 DUP4 AND GT ISZERO PUSH2 0x1AB3 JUMPI PUSH1 0x40 PUSH9 0x1000000000B17217F DUP3 MUL SWAP1 SHR SWAP1 POP JUMPDEST PUSH1 0x0 PUSH4 0x8000000 DUP4 AND GT ISZERO PUSH2 0x1AD5 JUMPI PUSH1 0x40 PUSH9 0x100000000058B90C0 DUP3 MUL SWAP1 SHR SWAP1 POP JUMPDEST PUSH1 0x0 PUSH4 0x4000000 DUP4 AND GT ISZERO PUSH2 0x1AF7 JUMPI PUSH1 0x40 PUSH9 0x10000000002C5C860 DUP3 MUL SWAP1 SHR SWAP1 POP JUMPDEST PUSH1 0x0 PUSH4 0x2000000 DUP4 AND GT ISZERO PUSH2 0x1B19 JUMPI PUSH1 0x40 PUSH9 0x1000000000162E430 DUP3 MUL SWAP1 SHR SWAP1 POP JUMPDEST PUSH1 0x0 PUSH4 0x1000000 DUP4 AND GT ISZERO PUSH2 0x1B3B JUMPI PUSH1 0x40 PUSH9 0x10000000000B17218 DUP3 MUL SWAP1 SHR SWAP1 POP JUMPDEST JUMPDEST PUSH1 0x0 PUSH3 0xFF0000 DUP4 AND GT ISZERO PUSH2 0x1C53 JUMPI PUSH1 0x0 PUSH3 0x800000 DUP4 AND GT ISZERO PUSH2 0x1B6B JUMPI PUSH1 0x40 PUSH9 0x1000000000058B90C DUP3 MUL SWAP1 SHR SWAP1 POP JUMPDEST PUSH1 0x0 PUSH3 0x400000 DUP4 AND GT ISZERO PUSH2 0x1B8C JUMPI PUSH1 0x40 PUSH9 0x100000000002C5C86 DUP3 MUL SWAP1 SHR SWAP1 POP JUMPDEST PUSH1 0x0 PUSH3 0x200000 DUP4 AND GT ISZERO PUSH2 0x1BAD JUMPI PUSH1 0x40 PUSH9 0x10000000000162E43 DUP3 MUL SWAP1 SHR SWAP1 POP JUMPDEST PUSH1 0x0 PUSH3 0x100000 DUP4 AND GT ISZERO PUSH2 0x1BCE JUMPI PUSH1 0x40 PUSH9 0x100000000000B1721 DUP3 MUL SWAP1 SHR SWAP1 POP JUMPDEST PUSH1 0x0 PUSH3 0x80000 DUP4 AND GT ISZERO PUSH2 0x1BEF JUMPI PUSH1 0x40 PUSH9 0x10000000000058B91 DUP3 MUL SWAP1 SHR SWAP1 POP JUMPDEST PUSH1 0x0 PUSH3 0x40000 DUP4 AND GT ISZERO PUSH2 0x1C10 JUMPI PUSH1 0x40 PUSH9 0x1000000000002C5C8 DUP3 MUL SWAP1 SHR SWAP1 POP JUMPDEST PUSH1 0x0 PUSH3 0x20000 DUP4 AND GT ISZERO PUSH2 0x1C31 JUMPI PUSH1 0x40 PUSH9 0x100000000000162E4 DUP3 MUL SWAP1 SHR SWAP1 POP JUMPDEST PUSH1 0x0 PUSH3 0x10000 DUP4 AND GT ISZERO PUSH2 0x1C52 JUMPI PUSH1 0x40 PUSH9 0x1000000000000B172 DUP3 MUL SWAP1 SHR SWAP1 POP JUMPDEST JUMPDEST PUSH1 0x0 PUSH2 0xFF00 DUP4 AND GT ISZERO PUSH2 0x1D61 JUMPI PUSH1 0x0 PUSH2 0x8000 DUP4 AND GT ISZERO PUSH2 0x1C80 JUMPI PUSH1 0x40 PUSH9 0x100000000000058B9 DUP3 MUL SWAP1 SHR SWAP1 POP JUMPDEST PUSH1 0x0 PUSH2 0x4000 DUP4 AND GT ISZERO PUSH2 0x1CA0 JUMPI PUSH1 0x40 PUSH9 0x10000000000002C5D DUP3 MUL SWAP1 SHR SWAP1 POP JUMPDEST PUSH1 0x0 PUSH2 0x2000 DUP4 AND GT ISZERO PUSH2 0x1CC0 JUMPI PUSH1 0x40 PUSH9 0x1000000000000162E DUP3 MUL SWAP1 SHR SWAP1 POP JUMPDEST PUSH1 0x0 PUSH2 0x1000 DUP4 AND GT ISZERO PUSH2 0x1CE0 JUMPI PUSH1 0x40 PUSH9 0x10000000000000B17 DUP3 MUL SWAP1 SHR SWAP1 POP JUMPDEST PUSH1 0x0 PUSH2 0x800 DUP4 AND GT ISZERO PUSH2 0x1D00 JUMPI PUSH1 0x40 PUSH9 0x1000000000000058C DUP3 MUL SWAP1 SHR SWAP1 POP JUMPDEST PUSH1 0x0 PUSH2 0x400 DUP4 AND GT ISZERO PUSH2 0x1D20 JUMPI PUSH1 0x40 PUSH9 0x100000000000002C6 DUP3 MUL SWAP1 SHR SWAP1 POP JUMPDEST PUSH1 0x0 PUSH2 0x200 DUP4 AND GT ISZERO PUSH2 0x1D40 JUMPI PUSH1 0x40 PUSH9 0x10000000000000163 DUP3 MUL SWAP1 SHR SWAP1 POP JUMPDEST PUSH1 0x0 PUSH2 0x100 DUP4 AND GT ISZERO PUSH2 0x1D60 JUMPI PUSH1 0x40 PUSH9 0x100000000000000B1 DUP3 MUL SWAP1 SHR SWAP1 POP JUMPDEST JUMPDEST PUSH1 0x0 PUSH1 0xFF DUP4 AND GT ISZERO PUSH2 0x1E66 JUMPI PUSH1 0x0 PUSH1 0x80 DUP4 AND GT ISZERO PUSH2 0x1D8C JUMPI PUSH1 0x40 PUSH9 0x10000000000000059 DUP3 MUL SWAP1 SHR SWAP1 POP JUMPDEST PUSH1 0x0 PUSH1 0x40 DUP4 AND GT ISZERO PUSH2 0x1DAB JUMPI PUSH1 0x40 PUSH9 0x1000000000000002C DUP3 MUL SWAP1 SHR SWAP1 POP JUMPDEST PUSH1 0x0 PUSH1 0x20 DUP4 AND GT ISZERO PUSH2 0x1DCA JUMPI PUSH1 0x40 PUSH9 0x10000000000000016 DUP3 MUL SWAP1 SHR SWAP1 POP JUMPDEST PUSH1 0x0 PUSH1 0x10 DUP4 AND GT ISZERO PUSH2 0x1DE9 JUMPI PUSH1 0x40 PUSH9 0x1000000000000000B DUP3 MUL SWAP1 SHR SWAP1 POP JUMPDEST PUSH1 0x0 PUSH1 0x8 DUP4 AND GT ISZERO PUSH2 0x1E08 JUMPI PUSH1 0x40 PUSH9 0x10000000000000006 DUP3 MUL SWAP1 SHR SWAP1 POP JUMPDEST PUSH1 0x0 PUSH1 0x4 DUP4 AND GT ISZERO PUSH2 0x1E27 JUMPI PUSH1 0x40 PUSH9 0x10000000000000003 DUP3 MUL SWAP1 SHR SWAP1 POP JUMPDEST PUSH1 0x0 PUSH1 0x2 DUP4 AND GT ISZERO PUSH2 0x1E46 JUMPI PUSH1 0x40 PUSH9 0x10000000000000001 DUP3 MUL SWAP1 SHR SWAP1 POP JUMPDEST PUSH1 0x0 PUSH1 0x1 DUP4 AND GT ISZERO PUSH2 0x1E65 JUMPI PUSH1 0x40 PUSH9 0x10000000000000001 DUP3 MUL SWAP1 SHR SWAP1 POP JUMPDEST JUMPDEST PUSH8 0xDE0B6B3A7640000 DUP2 MUL SWAP1 POP PUSH1 0x40 DUP3 SWAP1 SHR PUSH1 0xBF SUB DUP2 SWAP1 SHR SWAP1 POP SWAP2 SWAP1 POP JUMP JUMPDEST PUSH1 0x0 PUSH16 0xFFFFFFFFFFFFFFFFFFFFFFFFFFFFFFFF DUP3 GT PUSH1 0x7 SHL DUP3 DUP2 SHR SWAP3 POP DUP1 DUP3 OR SWAP2 POP POP PUSH8 0xFFFFFFFFFFFFFFFF DUP3 GT PUSH1 0x6 SHL DUP3 DUP2 SHR SWAP3 POP DUP1 DUP3 OR SWAP2 POP POP PUSH4 0xFFFFFFFF DUP3 GT PUSH1 0x5 SHL DUP3 DUP2 SHR SWAP3 POP DUP1 DUP3 OR SWAP2 POP POP PUSH2 0xFFFF DUP3 GT PUSH1 0x4 SHL DUP3 DUP2 SHR SWAP3 POP DUP1 DUP3 OR SWAP2 POP POP PUSH1 0xFF DUP3 GT PUSH1 0x3 SHL DUP3 DUP2 SHR SWAP3 POP DUP1 DUP3 OR SWAP2 POP POP PUSH1 0xF DUP3 GT PUSH1 0x2 SHL DUP3 DUP2 SHR SWAP3 POP DUP1 DUP3 OR SWAP2 POP POP PUSH1 0x3 DUP3 GT PUSH1 0x1 SHL DUP3 DUP2 SHR SWAP3 POP DUP1 DUP3 OR SWAP2 POP POP PUSH1 0x1 DUP3 GT DUP1 DUP3 OR SWAP2 POP POP SWAP2 SWAP1 POP JUMP JUMPDEST DUP3 DUP1 SLOAD DUP3 DUP3 SSTORE SWAP1 PUSH1 0x0 MSTORE PUSH1 0x20 PUSH1 0x0 KECCAK256 SWAP1 DUP2 ADD SWAP3 DUP3 ISZERO PUSH2 0x1F6A JUMPI SWAP2 PUSH1 0x20 MUL DUP3 ADD JUMPDEST DUP3 DUP2 GT ISZERO PUSH2 0x1F69 JUMPI DUP3 MLOAD DUP3 SSTORE SWAP2 PUSH1 0x20 ADD SWAP2 SWAP1 PUSH1 0x1 ADD SWAP1 PUSH2 0x1F4E JUMP JUMPDEST JUMPDEST POP SWAP1 POP PUSH2 0x1F77 SWAP2 SWAP1 PUSH2 0x1F7B JUMP JUMPDEST POP SWAP1 JUMP JUMPDEST JUMPDEST DUP1 DUP3 GT ISZERO PUSH2 0x1F94 JUMPI PUSH1 0x0 DUP2 PUSH1 0x0 SWAP1 SSTORE POP PUSH1 0x1 ADD PUSH2 0x1F7C JUMP JUMPDEST POP SWAP1 JUMP JUMPDEST PUSH1 0x0 DUP2 MLOAD SWAP1 POP SWAP2 SWAP1 POP JUMP JUMPDEST PUSH1 0x0 DUP3 DUP3 MSTORE PUSH1 0x20 DUP3 ADD SWAP1 POP SWAP3 SWAP2 POP POP JUMP JUMPDEST PUSH1 0x0 DUP2 SWAP1 POP PUSH1 0x20 DUP3 ADD SWAP1 POP SWAP2 SWAP1 POP JUMP JUMPDEST PUSH1 0x0 DUP2 SWAP1 POP SWAP2 SWAP1 POP JUMP JUMPDEST PUSH2 0x1FD7 DUP2 PUSH2 0x1FC4 JUMP JUMPDEST DUP3 MSTORE POP POP JUMP JUMPDEST PUSH1 0x0 PUSH2 0x1FE9 DUP4 DUP4 PUSH2 0x1FCE JUMP JUMPDEST PUSH1 0x20 DUP4 ADD SWAP1 POP SWAP3 SWAP2 POP POP JUMP JUMPDEST PUSH1 0x0 PUSH1 0x20 DUP3 ADD SWAP1 POP SWAP2 SWAP1 POP JUMP JUMPDEST PUSH1 0x0 PUSH2 0x200D DUP3 PUSH2 0x1F98 JUMP JUMPDEST PUSH2 0x2017 DUP2 DUP6 PUSH2 0x1FA3 JUMP JUMPDEST SWAP4 POP PUSH2 0x2022 DUP4 PUSH2 0x1FB4 JUMP JUMPDEST DUP1 PUSH1 0x0 JUMPDEST DUP4 DUP2 LT ISZERO PUSH2 0x2053 JUMPI DUP2 MLOAD PUSH2 0x203A DUP9 DUP3 PUSH2 0x1FDD JUMP JUMPDEST SWAP8 POP PUSH2 0x2045 DUP4 PUSH2 0x1FF5 JUMP JUMPDEST SWAP3 POP POP PUSH1 0x1 DUP2 ADD SWAP1 POP PUSH2 0x2026 JUMP JUMPDEST POP DUP6 SWAP4 POP POP POP POP SWAP3 SWAP2 POP POP JUMP JUMPDEST PUSH1 0x0 PUSH1 0x20 DUP3 ADD SWAP1 POP DUP2 DUP2 SUB PUSH1 0x0 DUP4 ADD MSTORE PUSH2 0x207A DUP2 DUP5 PUSH2 0x2002 JUMP JUMPDEST SWAP1 POP SWAP3 SWAP2 POP POP JUMP JUMPDEST PUSH1 0x0 PUSH1 0x40 MLOAD SWAP1 POP SWAP1 JUMP JUMPDEST PUSH1 0x0 DUP1 REVERT JUMPDEST PUSH1 0x0 DUP1 REVERT JUMPDEST PUSH1 0x0 DUP2 SWAP1 POP SWAP2 SWAP1 POP JUMP JUMPDEST PUSH2 0x20A9 DUP2 PUSH2 0x2096 JUMP JUMPDEST DUP2 EQ PUSH2 0x20B4 JUMPI PUSH1 0x0 DUP1 REVERT JUMPDEST POP JUMP JUMPDEST PUSH1 0x0 DUP2 CALLDATALOAD SWAP1 POP PUSH2 0x20C6 DUP2 PUSH2 0x20A0 JUMP JUMPDEST SWAP3 SWAP2 POP POP JUMP JUMPDEST PUSH2 0x20D5 DUP2 PUSH2 0x1FC4 JUMP JUMPDEST DUP2 EQ PUSH2 0x20E0 JUMPI PUSH1 0x0 DUP1 REVERT JUMPDEST POP JUMP JUMPDEST PUSH1 0x0 DUP2 CALLDATALOAD SWAP1 POP PUSH2 0x20F2 DUP2 PUSH2 0x20CC JUMP JUMPDEST SWAP3 SWAP2 POP POP JUMP JUMPDEST PUSH1 0x0 DUP1 PUSH1 0x40 DUP4 DUP6 SUB SLT ISZERO PUSH2 0x210F JUMPI PUSH2 0x210E PUSH2 0x208C JUMP JUMPDEST JUMPDEST PUSH1 0x0 PUSH2 0x211D DUP6 DUP3 DUP7 ADD PUSH2 0x20B7 JUMP JUMPDEST SWAP3 POP POP PUSH1 0x20 PUSH2 0x212E DUP6 DUP3 DUP7 ADD PUSH2 0x20E3 JUMP JUMPDEST SWAP2 POP POP SWAP3 POP SWAP3 SWAP1 POP JUMP JUMPDEST PUSH1 0x0 PUSH20 0xFFFFFFFFFFFFFFFFFFFFFFFFFFFFFFFFFFFFFFFF DUP3 AND SWAP1 POP SWAP2 SWAP1 POP JUMP JUMPDEST PUSH1 0x0 DUP2 SWAP1 POP SWAP2 SWAP1 POP JUMP JUMPDEST PUSH1 0x0 PUSH2 0x217D PUSH2 0x2178 PUSH2 0x2173 DUP5 PUSH2 0x2138 JUMP JUMPDEST PUSH2 0x2158 JUMP JUMPDEST PUSH2 0x2138 JUMP JUMPDEST SWAP1 POP SWAP2 SWAP1 POP JUMP JUMPDEST PUSH1 0x0 PUSH2 0x218F DUP3 PUSH2 0x2162 JUMP JUMPDEST SWAP1 POP SWAP2 SWAP1 POP JUMP JUMPDEST PUSH1 0x0 PUSH2 0x21A1 DUP3 PUSH2 0x2184 JUMP JUMPDEST SWAP1 POP SWAP2 SWAP1 POP JUMP JUMPDEST PUSH2 0x21B1 DUP2 PUSH2 0x2196 JUMP JUMPDEST DUP3 MSTORE POP POP JUMP JUMPDEST PUSH1 0x0 PUSH1 0x20 DUP3 ADD SWAP1 POP PUSH2 0x21CC PUSH1 0x0 DUP4 ADD DUP5 PUSH2 0x21A8 JUMP JUMPDEST SWAP3 SWAP2 POP POP JUMP JUMPDEST PUSH1 0x0 DUP1 REVERT JUMPDEST PUSH1 0x0 PUSH1 0x1F NOT PUSH1 0x1F DUP4 ADD AND SWAP1 POP SWAP2 SWAP1 POP JUMP JUMPDEST PUSH32 0x4E487B7100000000000000000000000000000000000000000000000000000000 PUSH1 0x0 MSTORE PUSH1 0x41 PUSH1 0x4 MSTORE PUSH1 0x24 PUSH1 0x0 REVERT JUMPDEST PUSH2 0x2220 DUP3 PUSH2 0x21D7 JUMP JUMPDEST DUP2 ADD DUP2 DUP2 LT PUSH8 0xFFFFFFFFFFFFFFFF DUP3 GT OR ISZERO PUSH2 0x223F JUMPI PUSH2 0x223E PUSH2 0x21E8 JUMP JUMPDEST JUMPDEST DUP1 PUSH1 0x40 MSTORE POP POP POP JUMP JUMPDEST PUSH1 0x0 PUSH2 0x2252 PUSH2 0x2082 JUMP JUMPDEST SWAP1 POP PUSH2 0x225E DUP3 DUP3 PUSH2 0x2217 JUMP JUMPDEST SWAP2 SWAP1 POP JUMP JUMPDEST PUSH1 0x0 PUSH8 0xFFFFFFFFFFFFFFFF DUP3 GT ISZERO PUSH2 0x227E JUMPI PUSH2 0x227D PUSH2 0x21E8 JUMP JUMPDEST JUMPDEST PUSH1 0x20 DUP3 MUL SWAP1 POP PUSH1 0x20 DUP2 ADD SWAP1 POP SWAP2 SWAP1 POP JUMP JUMPDEST PUSH1 0x0 DUP1 REVERT JUMPDEST PUSH1 0x0 PUSH2 0x22A7 PUSH2 0x22A2 DUP5 PUSH2 0x2263 JUMP JUMPDEST PUSH2 0x2248 JUMP JUMPDEST SWAP1 POP DUP1 DUP4 DUP3 MSTORE PUSH1 0x20 DUP3 ADD SWAP1 POP PUSH1 0x20 DUP5 MUL DUP4 ADD DUP6 DUP2 GT ISZERO PUSH2 0x22CA JUMPI PUSH2 0x22C9 PUSH2 0x228F JUMP JUMPDEST JUMPDEST DUP4 JUMPDEST DUP2 DUP2 LT ISZERO PUSH2 0x22F3 JUMPI DUP1 PUSH2 0x22DF DUP9 DUP3 PUSH2 0x20E3 JUMP JUMPDEST DUP5 MSTORE PUSH1 0x20 DUP5 ADD SWAP4 POP POP PUSH1 0x20 DUP2 ADD SWAP1 POP PUSH2 0x22CC JUMP JUMPDEST POP POP POP SWAP4 SWAP3 POP POP POP JUMP JUMPDEST PUSH1 0x0 DUP3 PUSH1 0x1F DUP4 ADD SLT PUSH2 0x2312 JUMPI PUSH2 0x2311 PUSH2 0x21D2 JUMP JUMPDEST JUMPDEST DUP2 CALLDATALOAD PUSH2 0x2322 DUP5 DUP3 PUSH1 0x20 DUP7 ADD PUSH2 0x2294 JUMP JUMPDEST SWAP2 POP POP SWAP3 SWAP2 POP POP JUMP JUMPDEST PUSH1 0x0 PUSH1 0x20 DUP3 DUP5 SUB SLT ISZERO PUSH2 0x2341 JUMPI PUSH2 0x2340 PUSH2 0x208C JUMP JUMPDEST JUMPDEST PUSH1 0x0 DUP3 ADD CALLDATALOAD PUSH8 0xFFFFFFFFFFFFFFFF DUP2 GT ISZERO PUSH2 0x235F JUMPI PUSH2 0x235E PUSH2 0x2091 JUMP JUMPDEST JUMPDEST PUSH2 0x236B DUP5 DUP3 DUP6 ADD PUSH2 0x22FD JUMP JUMPDEST SWAP2 POP POP SWAP3 SWAP2 POP POP JUMP JUMPDEST PUSH1 0x0 PUSH2 0x238F PUSH2 0x238A PUSH2 0x2385 DUP5 PUSH2 0x1FC4 JUMP JUMPDEST PUSH2 0x2158 JUMP JUMPDEST PUSH2 0x1FC4 JUMP JUMPDEST SWAP1 POP SWAP2 SWAP1 POP JUMP JUMPDEST PUSH2 0x239F DUP2 PUSH2 0x2374 JUMP JUMPDEST DUP3 MSTORE POP POP JUMP JUMPDEST PUSH1 0x0 PUSH1 0x20 DUP3 ADD SWAP1 POP PUSH2 0x23BA PUSH1 0x0 DUP4 ADD DUP5 PUSH2 0x2396 JUMP JUMPDEST SWAP3 SWAP2 POP POP JUMP JUMPDEST PUSH1 0x0 DUP1 PUSH1 0x40 DUP4 DUP6 SUB SLT ISZERO PUSH2 0x23D7 JUMPI PUSH2 0x23D6 PUSH2 0x208C JUMP JUMPDEST JUMPDEST PUSH1 0x0 PUSH2 0x23E5 DUP6 DUP3 DUP7 ADD PUSH2 0x20B7 JUMP JUMPDEST SWAP3 POP POP PUSH1 0x20 DUP4 ADD CALLDATALOAD PUSH8 0xFFFFFFFFFFFFFFFF DUP2 GT ISZERO PUSH2 0x2406 JUMPI PUSH2 0x2405 PUSH2 0x2091 JUMP JUMPDEST JUMPDEST PUSH2 0x2412 DUP6 DUP3 DUP7 ADD PUSH2 0x22FD JUMP JUMPDEST SWAP2 POP POP SWAP3 POP SWAP3 SWAP1 POP JUMP JUMPDEST PUSH2 0x2425 DUP2 PUSH2 0x1FC4 JUMP JUMPDEST DUP3 MSTORE POP POP JUMP JUMPDEST PUSH1 0x0 PUSH1 0x20 DUP3 ADD SWAP1 POP PUSH2 0x2440 PUSH1 0x0 DUP4 ADD DUP5 PUSH2 0x241C JUMP JUMPDEST SWAP3 SWAP2 POP POP JUMP JUMPDEST PUSH32 0x4E487B7100000000000000000000000000000000000000000000000000000000 PUSH1 0x0 MSTORE PUSH1 0x32 PUSH1 0x4 MSTORE PUSH1 0x24 PUSH1 0x0 REVERT JUMPDEST PUSH32 0x4E487B7100000000000000000000000000000000000000000000000000000000 PUSH1 0x0 MSTORE PUSH1 0x11 PUSH1 0x4 MSTORE PUSH1 0x24 PUSH1 0x0 REVERT JUMPDEST PUSH1 0x0 PUSH2 0x24AF DUP3 PUSH2 0x2096 JUMP JUMPDEST SWAP2 POP PUSH32 0xFFFFFFFFFFFFFFFFFFFFFFFFFFFFFFFFFFFFFFFFFFFFFFFFFFFFFFFFFFFFFFFF DUP3 SUB PUSH2 0x24E1 JUMPI PUSH2 0x24E0 PUSH2 0x2475 JUMP JUMPDEST JUMPDEST PUSH1 0x1 DUP3 ADD SWAP1 POP SWAP2 SWAP1 POP JUMP JUMPDEST PUSH1 0x0 DUP3 DUP3 MSTORE PUSH1 0x20 DUP3 ADD SWAP1 POP SWAP3 SWAP2 POP POP JUMP JUMPDEST PUSH32 0x4E6F2077696E6E696E677320746F2072656465656D0000000000000000000000 PUSH1 0x0 DUP3 ADD MSTORE POP JUMP JUMPDEST PUSH1 0x0 PUSH2 0x2533 PUSH1 0x15 DUP4 PUSH2 0x24EC JUMP JUMPDEST SWAP2 POP PUSH2 0x253E DUP3 PUSH2 0x24FD JUMP JUMPDEST PUSH1 0x20 DUP3 ADD SWAP1 POP SWAP2 SWAP1 POP JUMP JUMPDEST PUSH1 0x0 PUSH1 0x20 DUP3 ADD SWAP1 POP DUP2 DUP2 SUB PUSH1 0x0 DUP4 ADD MSTORE PUSH2 0x2562 DUP2 PUSH2 0x2526 JUMP JUMPDEST SWAP1 POP SWAP2 SWAP1 POP JUMP JUMPDEST PUSH1 0x0 PUSH2 0x2574 DUP3 PUSH2 0x2138 JUMP JUMPDEST SWAP1 POP SWAP2 SWAP1 POP JUMP JUMPDEST PUSH2 0x2584 DUP2 PUSH2 0x2569 JUMP JUMPDEST DUP3 MSTORE POP POP JUMP JUMPDEST PUSH2 0x2593 DUP2 PUSH2 0x2096 JUMP JUMPDEST DUP3 MSTORE POP POP JUMP JUMPDEST PUSH1 0x0 PUSH1 0x60 DUP3 ADD SWAP1 POP PUSH2 0x25AE PUSH1 0x0 DUP4 ADD DUP7 PUSH2 0x257B JUMP JUMPDEST PUSH2 0x25BB PUSH1 0x20 DUP4 ADD DUP6 PUSH2 0x257B JUMP JUMPDEST PUSH2 0x25C8 PUSH1 0x40 DUP4 ADD DUP5 PUSH2 0x258A JUMP JUMPDEST SWAP5 SWAP4 POP POP POP POP JUMP JUMPDEST PUSH1 0x0 DUP2 ISZERO ISZERO SWAP1 POP SWAP2 SWAP1 POP JUMP JUMPDEST PUSH2 0x25E5 DUP2 PUSH2 0x25D0 JUMP JUMPDEST DUP2 EQ PUSH2 0x25F0 JUMPI PUSH1 0x0 DUP1 REVERT JUMPDEST POP JUMP JUMPDEST PUSH1 0x0 DUP2 MLOAD SWAP1 POP PUSH2 0x2602 DUP2 PUSH2 0x25DC JUMP JUMPDEST SWAP3 SWAP2 POP POP JUMP JUMPDEST PUSH1 0x0 PUSH1 0x20 DUP3 DUP5 SUB SLT ISZERO PUSH2 0x261E JUMPI PUSH2 0x261D PUSH2 0x208C JUMP JUMPDEST JUMPDEST PUSH1 0x0 PUSH2 0x262C DUP5 DUP3 DUP6 ADD PUSH2 0x25F3 JUMP JUMPDEST SWAP2 POP POP SWAP3 SWAP2 POP POP JUMP JUMPDEST PUSH32 0x5472616E73666572206661696C65640000000000000000000000000000000000 PUSH1 0x0 DUP3 ADD MSTORE POP JUMP JUMPDEST PUSH1 0x0 PUSH2 0x266B PUSH1 0xF DUP4 PUSH2 0x24EC JUMP JUMPDEST SWAP2 POP PUSH2 0x2676 DUP3 PUSH2 0x2635 JUMP JUMPDEST PUSH1 0x20 DUP3 ADD SWAP1 POP SWAP2 SWAP1 POP JUMP JUMPDEST PUSH1 0x0 PUSH1 0x20 DUP3 ADD SWAP1 POP DUP2 DUP2 SUB PUSH1 0x0 DUP4 ADD MSTORE PUSH2 0x269A DUP2 PUSH2 0x265E JUMP JUMPDEST SWAP1 POP SWAP2 SWAP1 POP JUMP JUMPDEST PUSH1 0x0 DUP2 SWAP1 POP SWAP3 SWAP2 POP POP JUMP JUMPDEST PUSH32 0x4C4D535200000000000000000000000000000000000000000000000000000000 PUSH1 0x0 DUP3 ADD MSTORE POP JUMP JUMPDEST PUSH1 0x0 PUSH2 0x26E2 PUSH1 0x4 DUP4 PUSH2 0x26A1 JUMP JUMPDEST SWAP2 POP PUSH2 0x26ED DUP3 PUSH2 0x26AC JUMP JUMPDEST PUSH1 0x4 DUP3 ADD SWAP1 POP SWAP2 SWAP1 POP JUMP JUMPDEST PUSH1 0x0 PUSH2 0x2703 DUP3 PUSH2 0x26D5 JUMP JUMPDEST SWAP2 POP DUP2 SWAP1 POP SWAP2 SWAP1 POP JUMP JUMPDEST PUSH32 0x4E487B7100000000000000000000000000000000000000000000000000000000 PUSH1 0x0 MSTORE PUSH1 0x22 PUSH1 0x4 MSTORE PUSH1 0x24 PUSH1 0x0 REVERT JUMPDEST PUSH1 0x0 PUSH1 0x2 DUP3 DIV SWAP1 POP PUSH1 0x1 DUP3 AND DUP1 PUSH2 0x2754 JUMPI PUSH1 0x7F DUP3 AND SWAP2 POP JUMPDEST PUSH1 0x20 DUP3 LT DUP2 SUB PUSH2 0x2767 JUMPI PUSH2 0x2766 PUSH2 0x270D JUMP JUMPDEST JUMPDEST POP SWAP2 SWAP1 POP JUMP JUMPDEST PUSH1 0x0 DUP2 SWAP1 POP DUP2 PUSH1 0x0 MSTORE PUSH1 0x20 PUSH1 0x0 KECCAK256 SWAP1 POP SWAP2 SWAP1 POP JUMP JUMPDEST PUSH1 0x0 DUP2 SLOAD PUSH2 0x278F DUP2 PUSH2 0x273C JUMP JUMPDEST PUSH2 0x2799 DUP2 DUP7 PUSH2 0x26A1 JUMP JUMPDEST SWAP5 POP PUSH1 0x1 DUP3 AND PUSH1 0x0 DUP2 EQ PUSH2 0x27B4 JUMPI PUSH1 0x1 DUP2 EQ PUSH2 0x27C9 JUMPI PUSH2 0x27FC JUMP JUMPDEST PUSH1 0xFF NOT DUP4 AND DUP7 MSTORE DUP2 ISZERO ISZERO DUP3 MUL DUP7 ADD SWAP4 POP PUSH2 0x27FC JUMP JUMPDEST PUSH2 0x27D2 DUP6 PUSH2 0x276D JUMP JUMPDEST PUSH1 0x0 JUMPDEST DUP4 DUP2 LT ISZERO PUSH2 0x27F4 JUMPI DUP2 SLOAD DUP2 DUP10 ADD MSTORE PUSH1 0x1 DUP3 ADD SWAP2 POP PUSH1 0x20 DUP2 ADD SWAP1 POP PUSH2 0x27D5 JUMP JUMPDEST DUP4 DUP9 ADD SWAP6 POP POP POP JUMPDEST POP POP POP SWAP3 SWAP2 POP POP JUMP JUMPDEST PUSH1 0x0 PUSH2 0x2811 DUP3 DUP5 PUSH2 0x2782 JUMP JUMPDEST SWAP2 POP DUP2 SWAP1 POP SWAP3 SWAP2 POP POP JUMP JUMPDEST PUSH1 0x0 PUSH2 0x2827 DUP3 PUSH2 0x1FC4 JUMP JUMPDEST SWAP2 POP PUSH2 0x2832 DUP4 PUSH2 0x1FC4 JUMP JUMPDEST SWAP3 POP DUP3 DUP3 ADD SWAP1 POP DUP3 DUP2 SLT ISZERO PUSH1 0x0 DUP4 SLT AND DUP4 DUP3 SLT PUSH1 0x0 DUP5 SLT ISZERO AND OR ISZERO PUSH2 0x285A JUMPI PUSH2 0x2859 PUSH2 0x2475 JUMP JUMPDEST JUMPDEST SWAP3 SWAP2 POP POP JUMP JUMPDEST PUSH1 0x0 PUSH2 0x286B DUP3 PUSH2 0x1FC4 JUMP JUMPDEST SWAP2 POP PUSH2 0x2876 DUP4 PUSH2 0x1FC4 JUMP JUMPDEST SWAP3 POP DUP3 DUP3 SUB SWAP1 POP DUP2 DUP2 SLT PUSH1 0x0 DUP5 SLT AND DUP3 DUP3 SGT PUSH1 0x0 DUP6 SLT ISZERO AND OR ISZERO PUSH2 0x289D JUMPI PUSH2 0x289C PUSH2 0x2475 JUMP JUMPDEST JUMPDEST SWAP3 SWAP2 POP POP JUMP JUMPDEST PUSH1 0x0 PUSH1 0x40 DUP3 ADD SWAP1 POP PUSH2 0x28B8 PUSH1 0x0 DUP4 ADD DUP6 PUSH2 0x2396 JUMP JUMPDEST PUSH2 0x28C5 PUSH1 0x20 DUP4 ADD DUP5 PUSH2 0x2396 JUMP JUMPDEST SWAP4 SWAP3 POP POP POP JUMP JUMPDEST PUSH32 0x4E487B7100000000000000000000000000000000000000000000000000000000 PUSH1 0x0 MSTORE PUSH1 0x12 PUSH1 0x4 MSTORE PUSH1 0x24 PUSH1 0x0 REVERT JUMPDEST PUSH1 0x0 PUSH2 0x2906 DUP3 PUSH2 0x1FC4 JUMP JUMPDEST SWAP2 POP PUSH2 0x2911 DUP4 PUSH2 0x1FC4 JUMP JUMPDEST SWAP3 POP DUP3 DUP3 MUL PUSH2 0x291F DUP2 PUSH2 0x1FC4 JUMP JUMPDEST SWAP2 POP PUSH32 0x8000000000000000000000000000000000000000000000000000000000000000 DUP5 EQ PUSH1 0x0 DUP5 SLT AND ISZERO PUSH2 0x2957 JUMPI PUSH2 0x2956 PUSH2 0x2475 JUMP JUMPDEST JUMPDEST DUP3 DUP3 SDIV DUP5 EQ DUP4 ISZERO OR PUSH2 0x296C JUMPI PUSH2 0x296B PUSH2 0x2475 JUMP JUMPDEST JUMPDEST POP SWAP3 SWAP2 POP POP JUMP JUMPDEST PUSH1 0x0 PUSH2 0x297E DUP3 PUSH2 0x1FC4 JUMP JUMPDEST SWAP2 POP PUSH2 0x2989 DUP4 PUSH2 0x1FC4 JUMP JUMPDEST SWAP3 POP DUP3 PUSH2 0x2999 JUMPI PUSH2 0x2998 PUSH2 0x28CC JUMP JUMPDEST JUMPDEST PUSH1 0x1 PUSH1 0x0 SUB DUP4 EQ PUSH32 0x8000000000000000000000000000000000000000000000000000000000000000 DUP4 EQ AND ISZERO PUSH2 0x29D2 JUMPI PUSH2 0x29D1 PUSH2 0x2475 JUMP JUMPDEST JUMPDEST DUP3 DUP3 SDIV SWAP1 POP SWAP3 SWAP2 POP POP JUMP JUMPDEST PUSH1 0x0 PUSH1 0x40 DUP3 ADD SWAP1 POP PUSH2 0x29F2 PUSH1 0x0 DUP4 ADD DUP6 PUSH2 0x258A JUMP JUMPDEST PUSH2 0x29FF PUSH1 0x20 DUP4 ADD DUP5 PUSH2 0x258A JUMP JUMPDEST SWAP4 SWAP3 POP POP POP JUMP JUMPDEST PUSH1 0x0 PUSH1 0x60 DUP3 ADD SWAP1 POP PUSH2 0x2A1B PUSH1 0x0 DUP4 ADD DUP7 PUSH2 0x258A JUMP JUMPDEST PUSH2 0x2A28 PUSH1 0x20 DUP4 ADD DUP6 PUSH2 0x258A JUMP JUMPDEST PUSH2 0x2A35 PUSH1 0x40 DUP4 ADD DUP5 PUSH2 0x258A JUMP JUMPDEST SWAP5 SWAP4 POP POP POP POP JUMP INVALID LOG2 PUSH5 0x6970667358 0x22 SLT KECCAK256 MSTORE EXTCODESIZE BLOCKHASH MUL PUSH21 0x3313462D021A5DAD1F895ED924A42E8144B60EE4C0 PUSH24 0x9EED2DFB0464736F6C634300081300330000000000000000 "
		},
		"gasEstimates": {
			"creation": {
				"codeDepositCost": "2173400",
				"executionCost": "infinite",
				"totalCost": "infinite"
			},
			"external": {
				"cost(int256[])": "infinite",
				"get_price(uint256,int256[])": "infinite",
				"get_price_vector()": "infinite",
				"oracle()": "infinite",
				"redeem_winnings()": "infinite",
				"submitBet(uint256,int256)": "infinite"
			},
			"internal": {
				"cost_LMSR(SD59x18,SD59x18[] memory)": "infinite",
				"sum(SD59x18[] memory)": "infinite"
			}
		},
		"methodIdentifiers": {
			"cost(int256[])": "b5f5b77a",
			"get_price(uint256,int256[])": "ee7722a3",
			"get_price_vector()": "41e9b97a",
			"oracle()": "7dc0d1d0",
			"redeem_winnings()": "11f34121",
			"submitBet(uint256,int256)": "6e2ef6af"
		}
	},
	"abi": [
		{
			"inputs": [
				{
					"internalType": "uint256",
					"name": "_outcomeCount",
					"type": "uint256"
				},
				{
					"internalType": "SD59x18",
					"name": "_alpha",
					"type": "int256"
				},
				{
					"internalType": "SD59x18",
					"name": "_beta",
					"type": "int256"
				},
				{
					"internalType": "string",
					"name": "_msr",
					"type": "string"
				},
				{
					"internalType": "contract Token",
					"name": "_token",
					"type": "address"
				}
			],
			"stateMutability": "nonpayable",
			"type": "constructor"
		},
		{
			"inputs": [
				{
					"internalType": "uint256",
					"name": "x",
					"type": "uint256"
				},
				{
					"internalType": "uint256",
					"name": "y",
					"type": "uint256"
				}
			],
			"name": "PRBMath_MulDiv18_Overflow",
			"type": "error"
		},
		{
			"inputs": [
				{
					"internalType": "uint256",
					"name": "x",
					"type": "uint256"
				},
				{
					"internalType": "uint256",
					"name": "y",
					"type": "uint256"
				},
				{
					"internalType": "uint256",
					"name": "denominator",
					"type": "uint256"
				}
			],
			"name": "PRBMath_MulDiv_Overflow",
			"type": "error"
		},
		{
			"inputs": [],
			"name": "PRBMath_SD59x18_Div_InputTooSmall",
			"type": "error"
		},
		{
			"inputs": [
				{
					"internalType": "SD59x18",
					"name": "x",
					"type": "int256"
				},
				{
					"internalType": "SD59x18",
					"name": "y",
					"type": "int256"
				}
			],
			"name": "PRBMath_SD59x18_Div_Overflow",
			"type": "error"
		},
		{
			"inputs": [
				{
					"internalType": "SD59x18",
					"name": "x",
					"type": "int256"
				}
			],
			"name": "PRBMath_SD59x18_Exp2_InputTooBig",
			"type": "error"
		},
		{
			"inputs": [
				{
					"internalType": "SD59x18",
					"name": "x",
					"type": "int256"
				}
			],
			"name": "PRBMath_SD59x18_Exp_InputTooBig",
			"type": "error"
		},
		{
			"inputs": [
				{
					"internalType": "SD59x18",
					"name": "x",
					"type": "int256"
				}
			],
			"name": "PRBMath_SD59x18_Log_InputTooSmall",
			"type": "error"
		},
		{
			"inputs": [],
			"name": "PRBMath_SD59x18_Mul_InputTooSmall",
			"type": "error"
		},
		{
			"inputs": [
				{
					"internalType": "SD59x18",
					"name": "x",
					"type": "int256"
				},
				{
					"internalType": "SD59x18",
					"name": "y",
					"type": "int256"
				}
			],
			"name": "PRBMath_SD59x18_Mul_Overflow",
			"type": "error"
		},
		{
			"anonymous": false,
			"inputs": [
				{
					"indexed": true,
					"internalType": "address",
					"name": "trader",
					"type": "address"
				},
				{
					"indexed": true,
					"internalType": "uint256",
					"name": "index",
					"type": "uint256"
				},
				{
					"indexed": false,
					"internalType": "uint256",
					"name": "shares",
					"type": "uint256"
				}
			],
			"name": "Bet",
			"type": "event"
		},
		{
			"inputs": [
				{
					"internalType": "SD59x18[]",
					"name": "q",
					"type": "int256[]"
				}
			],
			"name": "cost",
			"outputs": [
				{
					"internalType": "SD59x18",
					"name": "",
					"type": "int256"
				}
			],
			"stateMutability": "view",
			"type": "function"
		},
		{
			"inputs": [
				{
					"internalType": "uint256",
					"name": "i",
					"type": "uint256"
				},
				{
					"internalType": "SD59x18[]",
					"name": "q",
					"type": "int256[]"
				}
			],
			"name": "get_price",
			"outputs": [
				{
					"internalType": "int256",
					"name": "",
					"type": "int256"
				}
			],
			"stateMutability": "view",
			"type": "function"
		},
		{
			"inputs": [],
			"name": "get_price_vector",
			"outputs": [
				{
					"internalType": "int256[]",
					"name": "",
					"type": "int256[]"
				}
			],
			"stateMutability": "view",
			"type": "function"
		},
		{
			"inputs": [],
			"name": "oracle",
			"outputs": [
				{
					"internalType": "contract Oracle",
					"name": "",
					"type": "address"
				}
			],
			"stateMutability": "view",
			"type": "function"
		},
		{
			"inputs": [],
			"name": "redeem_winnings",
			"outputs": [],
			"stateMutability": "payable",
			"type": "function"
		},
		{
			"inputs": [
				{
					"internalType": "uint256",
					"name": "i",
					"type": "uint256"
				},
				{
					"internalType": "SD59x18",
					"name": "shares",
					"type": "int256"
				}
			],
			"name": "submitBet",
			"outputs": [],
			"stateMutability": "payable",
			"type": "function"
		}
	]
}